{
  "address": "0x7d6BE352e0Aa00E520faE6b0832F45b211C60eCB",
  "abi": [
    {
      "anonymous": false,
      "inputs": [
        {
          "indexed": false,
          "internalType": "uint8",
          "name": "version",
          "type": "uint8"
        }
      ],
      "name": "Initialized",
      "type": "event"
    },
    {
      "anonymous": false,
      "inputs": [
        {
          "indexed": true,
          "internalType": "address",
          "name": "previousOwner",
          "type": "address"
        },
        {
          "indexed": true,
          "internalType": "address",
          "name": "newOwner",
          "type": "address"
        }
      ],
      "name": "OwnershipTransferred",
      "type": "event"
    },
    {
      "stateMutability": "payable",
      "type": "fallback"
    },
    {
      "inputs": [],
      "name": "amountDeposited",
      "outputs": [
        {
          "internalType": "uint256",
          "name": "",
          "type": "uint256"
        }
      ],
      "stateMutability": "view",
      "type": "function"
    },
    {
      "inputs": [],
      "name": "balance",
      "outputs": [
        {
          "internalType": "uint256",
          "name": "",
          "type": "uint256"
        }
      ],
      "stateMutability": "view",
      "type": "function"
    },
    {
      "inputs": [],
      "name": "deposit",
      "outputs": [],
      "stateMutability": "payable",
      "type": "function"
    },
    {
      "inputs": [
        {
          "internalType": "address",
          "name": "_gateway",
          "type": "address"
        },
        {
          "internalType": "address",
          "name": "_asset",
          "type": "address"
        },
        {
          "internalType": "address",
          "name": "_pool",
          "type": "address"
        },
        {
          "internalType": "address",
          "name": "_player",
          "type": "address"
        }
      ],
      "name": "initialize",
      "outputs": [],
      "stateMutability": "nonpayable",
      "type": "function"
    },
    {
      "inputs": [],
      "name": "owner",
      "outputs": [
        {
          "internalType": "address",
          "name": "",
          "type": "address"
        }
      ],
      "stateMutability": "view",
      "type": "function"
    },
    {
      "inputs": [],
      "name": "renounceOwnership",
      "outputs": [],
      "stateMutability": "nonpayable",
      "type": "function"
    },
    {
      "inputs": [
        {
          "internalType": "address",
          "name": "newOwner",
          "type": "address"
        }
      ],
      "name": "transferOwnership",
      "outputs": [],
      "stateMutability": "nonpayable",
      "type": "function"
    },
    {
      "inputs": [
        {
          "internalType": "address",
          "name": "_receiver",
          "type": "address"
        }
      ],
      "name": "withdraw",
      "outputs": [],
      "stateMutability": "nonpayable",
      "type": "function"
    },
    {
      "inputs": [],
      "name": "withdrawEmergency",
      "outputs": [],
      "stateMutability": "nonpayable",
      "type": "function"
    },
    {
      "inputs": [],
      "name": "yield",
      "outputs": [
        {
          "internalType": "uint256",
          "name": "",
          "type": "uint256"
        }
      ],
      "stateMutability": "view",
      "type": "function"
    },
    {
      "stateMutability": "payable",
      "type": "receive"
    }
  ],
  "transactionHash": "0xf7eb47b76f63595f52c12d9a5d6ea35ddba92a52ea6d4ea3874a6d647fff5e50",
  "args": [],
  "numDeployments": 1,
  "solcInputHash": "814b507454d56489e478eebb36f33254",
  "bytecode": "0x608060405234801561001057600080fd5b5061149b806100206000396000f3fe6080604052600436106100955760003560e01c8063b69ef8a811610059578063b69ef8a81461014b578063d0e30db014610176578063f2fde38b14610180578063f86ccd41146101a9578063f8c8765e146101d45761009c565b8063285939841461009e5780634146a073146100c957806351cff8d9146100e0578063715018a6146101095780638da5cb5b146101205761009c565b3661009c57005b005b3480156100aa57600080fd5b506100b36101fd565b6040516100c09190611175565b60405180910390f35b3480156100d557600080fd5b506100de61031f565b005b3480156100ec57600080fd5b5061010760048036038101906101029190610e3f565b610478565b005b34801561011557600080fd5b5061011e6105a0565b005b34801561012c57600080fd5b50610135610628565b6040516101429190611008565b60405180910390f35b34801561015757600080fd5b50610160610652565b60405161016d9190611175565b60405180910390f35b61017e610704565b005b34801561018c57600080fd5b506101a760048036038101906101a29190610e3f565b61082a565b005b3480156101b557600080fd5b506101be610922565b6040516101cb9190611175565b60405180910390f35b3480156101e057600080fd5b506101fb60048036038101906101f69190610e68565b610928565b005b6000609b543073ffffffffffffffffffffffffffffffffffffffff1663b69ef8a86040518163ffffffff1660e01b815260040160206040518083038186803b15801561024857600080fd5b505afa15801561025c573d6000803e3d6000fd5b505050506040513d601f19601f820116820180604052508101906102809190610ef4565b1161028e576000905061031c565b609b543073ffffffffffffffffffffffffffffffffffffffff1663b69ef8a86040518163ffffffff1660e01b815260040160206040518083038186803b1580156102d757600080fd5b505afa1580156102eb573d6000803e3d6000fd5b505050506040513d601f19601f8201168201806040525081019061030f9190610ef4565b61031991906111f7565b90505b90565b610327610bbe565b73ffffffffffffffffffffffffffffffffffffffff16610345610628565b73ffffffffffffffffffffffffffffffffffffffff161461039b576040517f08c379a000000000000000000000000000000000000000000000000000000000815260040161039290611115565b60405180910390fd5b609860009054906101000a900473ffffffffffffffffffffffffffffffffffffffff1673ffffffffffffffffffffffffffffffffffffffff166380500d20609960009054906101000a900473ffffffffffffffffffffffffffffffffffffffff167fffffffffffffffffffffffffffffffffffffffffffffffffffffffffffffffff336040518463ffffffff1660e01b815260040161043c93929190611083565b600060405180830381600087803b15801561045657600080fd5b505af115801561046a573d6000803e3d6000fd5b505050506000609b81905550565b600260655414156104be576040517f08c379a00000000000000000000000000000000000000000000000000000000081526004016104b590611155565b60405180910390fd5b6002606581905550642e90edd0006104d46101fd565b111561059557609860009054906101000a900473ffffffffffffffffffffffffffffffffffffffff1673ffffffffffffffffffffffffffffffffffffffff166380500d20609960009054906101000a900473ffffffffffffffffffffffffffffffffffffffff166105436101fd565b846040518463ffffffff1660e01b815260040161056293929190611083565b600060405180830381600087803b15801561057c57600080fd5b505af1158015610590573d6000803e3d6000fd5b505050505b600160658190555050565b6105a8610bbe565b73ffffffffffffffffffffffffffffffffffffffff166105c6610628565b73ffffffffffffffffffffffffffffffffffffffff161461061c576040517f08c379a000000000000000000000000000000000000000000000000000000000815260040161061390611115565b60405180910390fd5b6106266000610bc6565b565b6000603360009054906101000a900473ffffffffffffffffffffffffffffffffffffffff16905090565b6000609760009054906101000a900473ffffffffffffffffffffffffffffffffffffffff1673ffffffffffffffffffffffffffffffffffffffff166370a08231306040518263ffffffff1660e01b81526004016106af9190611008565b60206040518083038186803b1580156106c757600080fd5b505afa1580156106db573d6000803e3d6000fd5b505050506040513d601f19601f820116820180604052508101906106ff9190610ef4565b905090565b6002606554141561074a576040517f08c379a000000000000000000000000000000000000000000000000000000000815260040161074190611155565b60405180910390fd5b6002606581905550609860009054906101000a900473ffffffffffffffffffffffffffffffffffffffff1673ffffffffffffffffffffffffffffffffffffffff1663474cf53d34609960009054906101000a900473ffffffffffffffffffffffffffffffffffffffff163060006040518563ffffffff1660e01b81526004016107d593929190611023565b6000604051808303818588803b1580156107ee57600080fd5b505af1158015610802573d6000803e3d6000fd5b505050505034609b600082825461081991906111a1565b925050819055506001606581905550565b610832610bbe565b73ffffffffffffffffffffffffffffffffffffffff16610850610628565b73ffffffffffffffffffffffffffffffffffffffff16146108a6576040517f08c379a000000000000000000000000000000000000000000000000000000000815260040161089d90611115565b60405180910390fd5b600073ffffffffffffffffffffffffffffffffffffffff168173ffffffffffffffffffffffffffffffffffffffff161415610916576040517f08c379a000000000000000000000000000000000000000000000000000000000815260040161090d906110d5565b60405180910390fd5b61091f81610bc6565b50565b609b5481565b60006109346001610c8c565b90508015610958576001600060016101000a81548160ff0219169083151502179055505b84609860006101000a81548173ffffffffffffffffffffffffffffffffffffffff021916908373ffffffffffffffffffffffffffffffffffffffff16021790555083609760006101000a81548173ffffffffffffffffffffffffffffffffffffffff021916908373ffffffffffffffffffffffffffffffffffffffff16021790555082609960006101000a81548173ffffffffffffffffffffffffffffffffffffffff021916908373ffffffffffffffffffffffffffffffffffffffff16021790555081609a60006101000a81548173ffffffffffffffffffffffffffffffffffffffff021916908373ffffffffffffffffffffffffffffffffffffffff1602179055506000609b81905550609760009054906101000a900473ffffffffffffffffffffffffffffffffffffffff1673ffffffffffffffffffffffffffffffffffffffff1663095ea7b3609860009054906101000a900473ffffffffffffffffffffffffffffffffffffffff167fffffffffffffffffffffffffffffffffffffffffffffffffffffffffffffffff6040518363ffffffff1660e01b8152600401610b0392919061105a565b602060405180830381600087803b158015610b1d57600080fd5b505af1158015610b31573d6000803e3d6000fd5b505050506040513d601f19601f82011682018060405250810190610b559190610ecb565b50610b5e610d7c565b8015610bb75760008060016101000a81548160ff0219169083151502179055507f7f26b83ff96e1f2b6a682f133852f6798a09c465da95921460cefb38474024986001604051610bae91906110ba565b60405180910390a15b5050505050565b600033905090565b6000603360009054906101000a900473ffffffffffffffffffffffffffffffffffffffff16905081603360006101000a81548173ffffffffffffffffffffffffffffffffffffffff021916908373ffffffffffffffffffffffffffffffffffffffff1602179055508173ffffffffffffffffffffffffffffffffffffffff168173ffffffffffffffffffffffffffffffffffffffff167f8be0079c531659141344cd1fd0a4f28419497f9722a3daafe3b4186f6b6457e060405160405180910390a35050565b60008060019054906101000a900460ff1615610d035760018260ff16148015610cbb5750610cb930610ddd565b155b610cfa576040517f08c379a0000000000000000000000000000000000000000000000000000000008152600401610cf1906110f5565b60405180910390fd5b60009050610d77565b8160ff1660008054906101000a900460ff1660ff1610610d58576040517f08c379a0000000000000000000000000000000000000000000000000000000008152600401610d4f906110f5565b60405180910390fd5b816000806101000a81548160ff021916908360ff160217905550600190505b919050565b600060019054906101000a900460ff16610dcb576040517f08c379a0000000000000000000000000000000000000000000000000000000008152600401610dc290611135565b60405180910390fd5b610ddb610dd6610bbe565b610bc6565b565b6000808273ffffffffffffffffffffffffffffffffffffffff163b119050919050565b600081359050610e0f81611420565b92915050565b600081519050610e2481611437565b92915050565b600081519050610e398161144e565b92915050565b600060208284031215610e5157600080fd5b6000610e5f84828501610e00565b91505092915050565b60008060008060808587031215610e7e57600080fd5b6000610e8c87828801610e00565b9450506020610e9d87828801610e00565b9350506040610eae87828801610e00565b9250506060610ebf87828801610e00565b91505092959194509250565b600060208284031215610edd57600080fd5b6000610eeb84828501610e15565b91505092915050565b600060208284031215610f0657600080fd5b6000610f1484828501610e2a565b91505092915050565b610f268161122b565b82525050565b610f358161128e565b82525050565b610f44816112a0565b82525050565b6000610f57602683611190565b9150610f62826112e1565b604082019050919050565b6000610f7a602e83611190565b9150610f8582611330565b604082019050919050565b6000610f9d602083611190565b9150610fa88261137f565b602082019050919050565b6000610fc0602b83611190565b9150610fcb826113a8565b604082019050919050565b6000610fe3601f83611190565b9150610fee826113f7565b602082019050919050565b61100281611277565b82525050565b600060208201905061101d6000830184610f1d565b92915050565b60006060820190506110386000830186610f1d565b6110456020830185610f1d565b6110526040830184610f2c565b949350505050565b600060408201905061106f6000830185610f1d565b61107c6020830184610ff9565b9392505050565b60006060820190506110986000830186610f1d565b6110a56020830185610ff9565b6110b26040830184610f1d565b949350505050565b60006020820190506110cf6000830184610f3b565b92915050565b600060208201905081810360008301526110ee81610f4a565b9050919050565b6000602082019050818103600083015261110e81610f6d565b9050919050565b6000602082019050818103600083015261112e81610f90565b9050919050565b6000602082019050818103600083015261114e81610fb3565b9050919050565b6000602082019050818103600083015261116e81610fd6565b9050919050565b600060208201905061118a6000830184610ff9565b92915050565b600082825260208201905092915050565b60006111ac82611277565b91506111b783611277565b9250827fffffffffffffffffffffffffffffffffffffffffffffffffffffffffffffffff038211156111ec576111eb6112b2565b5b828201905092915050565b600061120282611277565b915061120d83611277565b9250828210156112205761121f6112b2565b5b828203905092915050565b600061123682611257565b9050919050565b60008115159050919050565b600061ffff82169050919050565b600073ffffffffffffffffffffffffffffffffffffffff82169050919050565b6000819050919050565b600060ff82169050919050565b600061129982611249565b9050919050565b60006112ab82611281565b9050919050565b7f4e487b7100000000000000000000000000000000000000000000000000000000600052601160045260246000fd5b7f4f776e61626c653a206e6577206f776e657220697320746865207a65726f206160008201527f6464726573730000000000000000000000000000000000000000000000000000602082015250565b7f496e697469616c697a61626c653a20636f6e747261637420697320616c72656160008201527f647920696e697469616c697a6564000000000000000000000000000000000000602082015250565b7f4f776e61626c653a2063616c6c6572206973206e6f7420746865206f776e6572600082015250565b7f496e697469616c697a61626c653a20636f6e7472616374206973206e6f74206960008201527f6e697469616c697a696e67000000000000000000000000000000000000000000602082015250565b7f5265656e7472616e637947756172643a207265656e7472616e742063616c6c00600082015250565b6114298161122b565b811461143457600080fd5b50565b6114408161123d565b811461144b57600080fd5b50565b61145781611277565b811461146257600080fd5b5056fea2646970667358221220d230f902aaae453064ea03fe4ed3ad31736eee8e83ac157925a71c9de3538aaf64736f6c63430008040033",
  "devdoc": {
    "kind": "dev",
    "methods": {
      "owner()": {
        "details": "Returns the address of the current owner."
      },
      "renounceOwnership()": {
        "details": "Leaves the contract without owner. It will not be possible to call `onlyOwner` functions anymore. Can only be called by the current owner. NOTE: Renouncing ownership will leave the contract without an owner, thereby removing any functionality that is only available to the owner."
      },
      "transferOwnership(address)": {
        "details": "Transfers ownership of the contract to a new account (`newOwner`). Can only be called by the current owner."
      }
    },
    "version": 1
  },
  "userdoc": {
    "kind": "user",
    "methods": {
      "amountDeposited()": {
        "notice": "The total amount we deposited into the pool"
      },
      "balance()": {
        "notice": "Returns the total amount deposited in aave (inclusive yield)"
      },
      "deposit()": {
        "notice": "Deposit $ into aave"
      },
      "withdraw(address)": {
        "notice": "Withdraw only the yield from aave"
      },
      "withdrawEmergency()": {
        "notice": "Emergency withdraw function"
      },
      "yield()": {
        "notice": "Returns how much yield we generated with aave"
      }
    },
    "version": 1
  },
  "storageLayout": {
    "storage": [
      {
        "astId": 130,
        "contract": "contracts/vaults/AaveVault.sol:AaveVault",
        "label": "_initialized",
        "offset": 0,
        "slot": "0",
        "type": "t_uint8"
      },
      {
        "astId": 133,
        "contract": "contracts/vaults/AaveVault.sol:AaveVault",
        "label": "_initializing",
        "offset": 1,
        "slot": "0",
        "type": "t_bool"
      },
      {
        "astId": 608,
        "contract": "contracts/vaults/AaveVault.sol:AaveVault",
        "label": "__gap",
        "offset": 0,
        "slot": "1",
        "type": "t_array(t_uint256)50_storage"
      },
      {
        "astId": 10,
        "contract": "contracts/vaults/AaveVault.sol:AaveVault",
        "label": "_owner",
        "offset": 0,
        "slot": "51",
        "type": "t_address"
      },
      {
        "astId": 122,
        "contract": "contracts/vaults/AaveVault.sol:AaveVault",
        "label": "__gap",
        "offset": 0,
        "slot": "52",
        "type": "t_array(t_uint256)49_storage"
      },
      {
        "astId": 279,
        "contract": "contracts/vaults/AaveVault.sol:AaveVault",
        "label": "_status",
        "offset": 0,
        "slot": "101",
        "type": "t_uint256"
      },
      {
        "astId": 323,
        "contract": "contracts/vaults/AaveVault.sol:AaveVault",
        "label": "__gap",
        "offset": 0,
        "slot": "102",
        "type": "t_array(t_uint256)49_storage"
      },
      {
        "astId": 746,
        "contract": "contracts/vaults/AaveVault.sol:AaveVault",
        "label": "ASSET",
        "offset": 0,
        "slot": "151",
        "type": "t_address"
      },
      {
        "astId": 749,
        "contract": "contracts/vaults/AaveVault.sol:AaveVault",
        "label": "GATEWAY",
        "offset": 0,
        "slot": "152",
        "type": "t_address"
      },
      {
        "astId": 752,
        "contract": "contracts/vaults/AaveVault.sol:AaveVault",
        "label": "POOL",
        "offset": 0,
        "slot": "153",
        "type": "t_address"
      },
      {
        "astId": 755,
        "contract": "contracts/vaults/AaveVault.sol:AaveVault",
        "label": "PLAYER",
        "offset": 0,
        "slot": "154",
        "type": "t_address"
      },
      {
        "astId": 758,
        "contract": "contracts/vaults/AaveVault.sol:AaveVault",
        "label": "amountDeposited",
        "offset": 0,
        "slot": "155",
        "type": "t_uint256"
      }
    ],
    "types": {
      "t_address": {
        "encoding": "inplace",
        "label": "address",
        "numberOfBytes": "20"
      },
      "t_array(t_uint256)49_storage": {
        "base": "t_uint256",
        "encoding": "inplace",
        "label": "uint256[49]",
        "numberOfBytes": "1568"
      },
      "t_array(t_uint256)50_storage": {
        "base": "t_uint256",
        "encoding": "inplace",
        "label": "uint256[50]",
        "numberOfBytes": "1600"
      },
      "t_bool": {
        "encoding": "inplace",
        "label": "bool",
        "numberOfBytes": "1"
      },
      "t_uint256": {
        "encoding": "inplace",
        "label": "uint256",
        "numberOfBytes": "32"
      },
      "t_uint8": {
        "encoding": "inplace",
        "label": "uint8",
        "numberOfBytes": "1"
      }
    }
  }
}