{
  "address": "0xFfc7d98197ec0e4E9DDdFF1C83B4299E8916D80F",
  "abi": [
    {
      "inputs": [
        {
          "internalType": "address",
          "name": "_proxyRegistryAddress",
          "type": "address"
        }
      ],
      "stateMutability": "nonpayable",
      "type": "constructor"
    },
    {
      "anonymous": false,
      "inputs": [
        {
          "indexed": true,
          "internalType": "address",
          "name": "owner",
          "type": "address"
        },
        {
          "indexed": true,
          "internalType": "address",
          "name": "approved",
          "type": "address"
        },
        {
          "indexed": true,
          "internalType": "uint256",
          "name": "tokenId",
          "type": "uint256"
        }
      ],
      "name": "Approval",
      "type": "event"
    },
    {
      "anonymous": false,
      "inputs": [
        {
          "indexed": true,
          "internalType": "address",
          "name": "owner",
          "type": "address"
        },
        {
          "indexed": true,
          "internalType": "address",
          "name": "operator",
          "type": "address"
        },
        {
          "indexed": false,
          "internalType": "bool",
          "name": "approved",
          "type": "bool"
        }
      ],
      "name": "ApprovalForAll",
      "type": "event"
    },
    {
      "anonymous": false,
      "inputs": [
        {
          "indexed": false,
          "internalType": "uint8",
          "name": "version",
          "type": "uint8"
        }
      ],
      "name": "Initialized",
      "type": "event"
    },
    {
      "anonymous": false,
      "inputs": [
        {
          "indexed": false,
          "internalType": "address",
          "name": "userAddress",
          "type": "address"
        },
        {
          "indexed": false,
          "internalType": "address payable",
          "name": "relayerAddress",
          "type": "address"
        },
        {
          "indexed": false,
          "internalType": "bytes",
          "name": "functionSignature",
          "type": "bytes"
        }
      ],
      "name": "MetaTransactionExecuted",
      "type": "event"
    },
    {
      "anonymous": false,
      "inputs": [
        {
          "indexed": true,
          "internalType": "address",
          "name": "previousOwner",
          "type": "address"
        },
        {
          "indexed": true,
          "internalType": "address",
          "name": "newOwner",
          "type": "address"
        }
      ],
      "name": "OwnershipTransferred",
      "type": "event"
    },
    {
      "anonymous": false,
      "inputs": [
        {
          "indexed": true,
          "internalType": "address",
          "name": "from",
          "type": "address"
        },
        {
          "indexed": true,
          "internalType": "address",
          "name": "to",
          "type": "address"
        },
        {
          "indexed": true,
          "internalType": "uint256",
          "name": "tokenId",
          "type": "uint256"
        }
      ],
      "name": "Transfer",
      "type": "event"
    },
    {
      "inputs": [],
      "name": "ERC712_VERSION",
      "outputs": [
        {
          "internalType": "string",
          "name": "",
          "type": "string"
        }
      ],
      "stateMutability": "view",
      "type": "function"
    },
    {
      "inputs": [
        {
          "internalType": "address",
          "name": "to",
          "type": "address"
        },
        {
          "internalType": "uint256",
          "name": "tokenId",
          "type": "uint256"
        }
      ],
      "name": "approve",
      "outputs": [],
      "stateMutability": "nonpayable",
      "type": "function"
    },
    {
      "inputs": [
        {
          "internalType": "address",
          "name": "owner",
          "type": "address"
        }
      ],
      "name": "balanceOf",
      "outputs": [
        {
          "internalType": "uint256",
          "name": "",
          "type": "uint256"
        }
      ],
      "stateMutability": "view",
      "type": "function"
    },
    {
      "inputs": [],
      "name": "baseTokenURI",
      "outputs": [
        {
          "internalType": "string",
          "name": "",
          "type": "string"
        }
      ],
      "stateMutability": "pure",
      "type": "function"
    },
    {
      "inputs": [
        {
          "internalType": "address",
          "name": "userAddress",
          "type": "address"
        },
        {
          "internalType": "bytes",
          "name": "functionSignature",
          "type": "bytes"
        },
        {
          "internalType": "bytes32",
          "name": "sigR",
          "type": "bytes32"
        },
        {
          "internalType": "bytes32",
          "name": "sigS",
          "type": "bytes32"
        },
        {
          "internalType": "uint8",
          "name": "sigV",
          "type": "uint8"
        }
      ],
      "name": "executeMetaTransaction",
      "outputs": [
        {
          "internalType": "bytes",
          "name": "",
          "type": "bytes"
        }
      ],
      "stateMutability": "payable",
      "type": "function"
    },
    {
      "inputs": [
        {
          "internalType": "uint256",
          "name": "tokenId",
          "type": "uint256"
        }
      ],
      "name": "getApproved",
      "outputs": [
        {
          "internalType": "address",
          "name": "",
          "type": "address"
        }
      ],
      "stateMutability": "view",
      "type": "function"
    },
    {
      "inputs": [],
      "name": "getChainId",
      "outputs": [
        {
          "internalType": "uint256",
          "name": "",
          "type": "uint256"
        }
      ],
      "stateMutability": "view",
      "type": "function"
    },
    {
      "inputs": [],
      "name": "getDomainSeperator",
      "outputs": [
        {
          "internalType": "bytes32",
          "name": "",
          "type": "bytes32"
        }
      ],
      "stateMutability": "view",
      "type": "function"
    },
    {
      "inputs": [
        {
          "internalType": "uint256",
          "name": "_tokenId",
          "type": "uint256"
        }
      ],
      "name": "getLocation",
      "outputs": [
        {
          "internalType": "uint256",
          "name": "x",
          "type": "uint256"
        },
        {
          "internalType": "uint256",
          "name": "y",
          "type": "uint256"
        }
      ],
      "stateMutability": "view",
      "type": "function"
    },
    {
      "inputs": [
        {
          "internalType": "address",
          "name": "user",
          "type": "address"
        }
      ],
      "name": "getNonce",
      "outputs": [
        {
          "internalType": "uint256",
          "name": "nonce",
          "type": "uint256"
        }
      ],
      "stateMutability": "view",
      "type": "function"
    },
    {
      "inputs": [],
      "name": "getShips",
      "outputs": [
        {
          "components": [
            {
              "internalType": "uint256",
              "name": "x",
              "type": "uint256"
            },
            {
              "internalType": "uint256",
              "name": "y",
              "type": "uint256"
            },
            {
              "internalType": "address",
              "name": "owner",
              "type": "address"
            },
            {
              "internalType": "uint256",
              "name": "id",
              "type": "uint256"
            }
          ],
          "internalType": "struct Starship.ShipData[]",
          "name": "",
          "type": "tuple[]"
        }
      ],
      "stateMutability": "view",
      "type": "function"
    },
    {
      "inputs": [
        {
          "internalType": "address",
          "name": "owner",
          "type": "address"
        },
        {
          "internalType": "address",
          "name": "operator",
          "type": "address"
        }
      ],
      "name": "isApprovedForAll",
      "outputs": [
        {
          "internalType": "bool",
          "name": "",
          "type": "bool"
        }
      ],
      "stateMutability": "view",
      "type": "function"
    },
    {
      "inputs": [
        {
          "internalType": "address",
          "name": "player",
          "type": "address"
        },
        {
          "internalType": "string",
          "name": "_tokenURI",
          "type": "string"
        }
      ],
      "name": "mint",
      "outputs": [
        {
          "internalType": "uint256",
          "name": "",
          "type": "uint256"
        }
      ],
      "stateMutability": "nonpayable",
      "type": "function"
    },
    {
      "inputs": [
        {
          "internalType": "address",
          "name": "_to",
          "type": "address"
        }
      ],
      "name": "mintTo",
      "outputs": [],
      "stateMutability": "nonpayable",
      "type": "function"
    },
    {
      "inputs": [],
      "name": "name",
      "outputs": [
        {
          "internalType": "string",
          "name": "",
          "type": "string"
        }
      ],
      "stateMutability": "view",
      "type": "function"
    },
    {
      "inputs": [],
      "name": "owner",
      "outputs": [
        {
          "internalType": "address",
          "name": "",
          "type": "address"
        }
      ],
      "stateMutability": "view",
      "type": "function"
    },
    {
      "inputs": [
        {
          "internalType": "uint256",
          "name": "tokenId",
          "type": "uint256"
        }
      ],
      "name": "ownerOf",
      "outputs": [
        {
          "internalType": "address",
          "name": "",
          "type": "address"
        }
      ],
      "stateMutability": "view",
      "type": "function"
    },
    {
      "inputs": [],
      "name": "playerContract",
      "outputs": [
        {
          "internalType": "address",
          "name": "",
          "type": "address"
        }
      ],
      "stateMutability": "view",
      "type": "function"
    },
    {
      "inputs": [],
      "name": "renounceOwnership",
      "outputs": [],
      "stateMutability": "nonpayable",
      "type": "function"
    },
    {
      "inputs": [
        {
          "internalType": "address",
          "name": "from",
          "type": "address"
        },
        {
          "internalType": "address",
          "name": "to",
          "type": "address"
        },
        {
          "internalType": "uint256",
          "name": "tokenId",
          "type": "uint256"
        }
      ],
      "name": "safeTransferFrom",
      "outputs": [],
      "stateMutability": "nonpayable",
      "type": "function"
    },
    {
      "inputs": [
        {
          "internalType": "address",
          "name": "from",
          "type": "address"
        },
        {
          "internalType": "address",
          "name": "to",
          "type": "address"
        },
        {
          "internalType": "uint256",
          "name": "tokenId",
          "type": "uint256"
        },
        {
          "internalType": "bytes",
          "name": "_data",
          "type": "bytes"
        }
      ],
      "name": "safeTransferFrom",
      "outputs": [],
      "stateMutability": "nonpayable",
      "type": "function"
    },
    {
      "inputs": [
        {
          "internalType": "address",
          "name": "operator",
          "type": "address"
        },
        {
          "internalType": "bool",
          "name": "approved",
          "type": "bool"
        }
      ],
      "name": "setApprovalForAll",
      "outputs": [],
      "stateMutability": "nonpayable",
      "type": "function"
    },
    {
      "inputs": [
        {
          "internalType": "uint256",
          "name": "_tokenId",
          "type": "uint256"
        },
        {
          "internalType": "address",
          "name": "_ownerAddress",
          "type": "address"
        },
        {
          "internalType": "uint256",
          "name": "x",
          "type": "uint256"
        },
        {
          "internalType": "uint256",
          "name": "y",
          "type": "uint256"
        }
      ],
      "name": "setLocation",
      "outputs": [],
      "stateMutability": "nonpayable",
      "type": "function"
    },
    {
      "inputs": [
        {
          "internalType": "address",
          "name": "_newPlayerContract",
          "type": "address"
        }
      ],
      "name": "setPlayerContract",
      "outputs": [],
      "stateMutability": "nonpayable",
      "type": "function"
    },
    {
      "inputs": [
        {
          "internalType": "bytes4",
          "name": "interfaceId",
          "type": "bytes4"
        }
      ],
      "name": "supportsInterface",
      "outputs": [
        {
          "internalType": "bool",
          "name": "",
          "type": "bool"
        }
      ],
      "stateMutability": "view",
      "type": "function"
    },
    {
      "inputs": [],
      "name": "symbol",
      "outputs": [
        {
          "internalType": "string",
          "name": "",
          "type": "string"
        }
      ],
      "stateMutability": "view",
      "type": "function"
    },
    {
      "inputs": [],
      "name": "tokenId",
      "outputs": [
        {
          "internalType": "uint256",
          "name": "_value",
          "type": "uint256"
        }
      ],
      "stateMutability": "view",
      "type": "function"
    },
    {
      "inputs": [
        {
          "internalType": "uint256",
          "name": "tokenId",
          "type": "uint256"
        }
      ],
      "name": "tokenURI",
      "outputs": [
        {
          "internalType": "string",
          "name": "",
          "type": "string"
        }
      ],
      "stateMutability": "view",
      "type": "function"
    },
    {
      "inputs": [],
      "name": "totalSupply",
      "outputs": [
        {
          "internalType": "uint256",
          "name": "",
          "type": "uint256"
        }
      ],
      "stateMutability": "view",
      "type": "function"
    },
    {
      "inputs": [
        {
          "internalType": "address",
          "name": "from",
          "type": "address"
        },
        {
          "internalType": "address",
          "name": "to",
          "type": "address"
        },
        {
          "internalType": "uint256",
          "name": "tokenId",
          "type": "uint256"
        }
      ],
      "name": "transferFrom",
      "outputs": [],
      "stateMutability": "nonpayable",
      "type": "function"
    },
    {
      "inputs": [
        {
          "internalType": "address",
          "name": "newOwner",
          "type": "address"
        }
      ],
      "name": "transferOwnership",
      "outputs": [],
      "stateMutability": "nonpayable",
      "type": "function"
    }
  ],
  "transactionHash": "0xd321d23ae9820a1a03d5119119820353887c2510b884eede8068709bc46ae134",
  "args": [
    "0x207Fa8Df3a17D96Ca7EA4f2893fcdCb78a304101"
  ],
  "numDeployments": 1,
  "solcInputHash": "cf68662ea65e84f6bf7246b6b139d287",
  "bytecode": "0x60806040523480156200001157600080fd5b506040516200517a3803806200517a833981810160405281019062000037919062000673565b6040518060400160405280600881526020017f53746172536869700000000000000000000000000000000000000000000000008152506040518060400160405280600481526020017f53484950000000000000000000000000000000000000000000000000000000008152508282828160009080519060200190620000be929190620005ac565b508060019080519060200190620000d7929190620005ac565b505050620000fa620000ee6200016d60201b60201c565b6200018960201b60201c565b80600b60006101000a81548173ffffffffffffffffffffffffffffffffffffffff021916908373ffffffffffffffffffffffffffffffffffffffff16021790555062000152600a6200024f60201b6200184a1760201c565b62000163836200026560201b60201c565b50505050620008d3565b6000620001846200031060201b620018601760201c565b905090565b6000600960009054906101000a900473ffffffffffffffffffffffffffffffffffffffff16905081600960006101000a81548173ffffffffffffffffffffffffffffffffffffffff021916908373ffffffffffffffffffffffffffffffffffffffff1602179055508173ffffffffffffffffffffffffffffffffffffffff168173ffffffffffffffffffffffffffffffffffffffff167f8be0079c531659141344cd1fd0a4f28419497f9722a3daafe3b4186f6b6457e060405160405180910390a35050565b6001816000016000828254019250508190555050565b6000620002796001620003c360201b60201c565b905080156200029e576001600660016101000a81548160ff0219169083151502179055505b620002af82620004cd60201b60201c565b80156200030c576000600660016101000a81548160ff0219169083151502179055507f7f26b83ff96e1f2b6a682f133852f6798a09c465da95921460cefb3847402498600160405162000303919062000756565b60405180910390a15b5050565b60003073ffffffffffffffffffffffffffffffffffffffff163373ffffffffffffffffffffffffffffffffffffffff161415620003bc57600080368080601f016020809104026020016040519081016040528093929190818152602001838380828437600081840152601f19601f820116905080830192505050505050509050600080369050905073ffffffffffffffffffffffffffffffffffffffff818301511692505050620003c0565b3390505b90565b6000600660019054906101000a900460ff16156200044e5760018260ff1614801562000402575062000400306200057c60201b620019111760201c565b155b62000444576040517f08c379a00000000000000000000000000000000000000000000000000000000081526004016200043b9062000773565b60405180910390fd5b60009050620004c8565b8160ff16600660009054906101000a900460ff1660ff1610620004a8576040517f08c379a00000000000000000000000000000000000000000000000000000000081526004016200049f9062000773565b60405180910390fd5b81600660006101000a81548160ff021916908360ff160217905550600190505b919050565b6040518060800160405280604f81526020016200512b604f91398051906020012081805190602001206040518060400160405280600181526020017f31000000000000000000000000000000000000000000000000000000000000008152508051906020012030620005446200059f60201b60201c565b60001b6040516020016200055d959493929190620006f9565b6040516020818303038152906040528051906020012060078190555050565b6000808273ffffffffffffffffffffffffffffffffffffffff163b119050919050565b6000804690508091505090565b828054620005ba9062000805565b90600052602060002090601f016020900481019282620005de57600085556200062a565b82601f10620005f957805160ff19168380011785556200062a565b828001600101855582156200062a579182015b82811115620006295782518255916020019190600101906200060c565b5b5090506200063991906200063d565b5090565b5b80821115620006585760008160009055506001016200063e565b5090565b6000815190506200066d81620008b9565b92915050565b6000602082840312156200068657600080fd5b600062000696848285016200065c565b91505092915050565b620006aa81620007a6565b82525050565b620006bb81620007ba565b82525050565b620006cc81620007f1565b82525050565b6000620006e1602e8362000795565b9150620006ee826200086a565b604082019050919050565b600060a082019050620007106000830188620006b0565b6200071f6020830187620006b0565b6200072e6040830186620006b0565b6200073d60608301856200069f565b6200074c6080830184620006b0565b9695505050505050565b60006020820190506200076d6000830184620006c1565b92915050565b600060208201905081810360008301526200078e81620006d2565b9050919050565b600082825260208201905092915050565b6000620007b382620007c4565b9050919050565b6000819050919050565b600073ffffffffffffffffffffffffffffffffffffffff82169050919050565b600060ff82169050919050565b6000620007fe82620007e4565b9050919050565b600060028204905060018216806200081e57607f821691505b602082108114156200083557620008346200083b565b5b50919050565b7f4e487b7100000000000000000000000000000000000000000000000000000000600052602260045260246000fd5b7f496e697469616c697a61626c653a20636f6e747261637420697320616c72656160008201527f647920696e697469616c697a6564000000000000000000000000000000000000602082015250565b620008c481620007a6565b8114620008d057600080fd5b50565b61484880620008e36000396000f3fe6080604052600436106101d85760003560e01c806370a0823111610102578063b88d4fde11610095578063d547cfb711610064578063d547cfb7146106da578063e985e9c514610705578063f2fde38b14610742578063f48814771461076b576101d8565b8063b88d4fde1461060c578063c87b56dd14610635578063cb7792a714610672578063d0def5211461069d576101d8565b80638da5cb5b116100d15780638da5cb5b1461056457806391df6c701461058f57806395d89b41146105b8578063a22cb465146105e3576101d8565b806370a08231146104a9578063715018a6146104e6578063755edd17146104fd5780637f7b139314610526576101d8565b806318160ddd1161017a5780633408e470116101495780633408e470146103ed57806342842e0e146104185780636352211e146104415780636738f2341461047e576101d8565b806318160ddd1461033157806320379ee51461035c57806323b872dd146103875780632d0335ab146103b0576101d8565b8063095ea7b3116101b6578063095ea7b3146102825780630c53c51c146102ab5780630f7e5970146102db57806317d70f7c14610306576101d8565b806301ffc9a7146101dd57806306fdde031461021a578063081812fc14610245575b600080fd5b3480156101e957600080fd5b5061020460048036038101906101ff9190613138565b610794565b60405161021191906138e7565b60405180910390f35b34801561022657600080fd5b5061022f610876565b60405161023c91906139c9565b60405180910390f35b34801561025157600080fd5b5061026c600480360381019061026791906131b3565b610908565b6040516102799190613820565b60405180910390f35b34801561028e57600080fd5b506102a960048036038101906102a491906130fc565b61098d565b005b6102c560048036038101906102c09190613019565b610aa5565b6040516102d291906139a7565b60405180910390f35b3480156102e757600080fd5b506102f0610d17565b6040516102fd91906139c9565b60405180910390f35b34801561031257600080fd5b5061031b610d50565b6040516103289190613c8b565b60405180910390f35b34801561033d57600080fd5b50610346610d5c565b6040516103539190613c8b565b60405180910390f35b34801561036857600080fd5b50610371610d79565b60405161037e9190613902565b60405180910390f35b34801561039357600080fd5b506103ae60048036038101906103a99190612f13565b610d83565b005b3480156103bc57600080fd5b506103d760048036038101906103d29190612eae565b610de3565b6040516103e49190613c8b565b60405180910390f35b3480156103f957600080fd5b50610402610e2c565b60405161040f9190613c8b565b60405180910390f35b34801561042457600080fd5b5061043f600480360381019061043a9190612f13565b610e39565b005b34801561044d57600080fd5b50610468600480360381019061046391906131b3565b610e59565b6040516104759190613820565b60405180910390f35b34801561048a57600080fd5b50610493610f0b565b6040516104a091906138c5565b60405180910390f35b3480156104b557600080fd5b506104d060048036038101906104cb9190612eae565b6110a8565b6040516104dd9190613c8b565b60405180910390f35b3480156104f257600080fd5b506104fb611160565b005b34801561050957600080fd5b50610524600480360381019061051f9190612eae565b6111e8565b005b34801561053257600080fd5b5061054d600480360381019061054891906131b3565b61128a565b60405161055b929190613ca6565b60405180910390f35b34801561057057600080fd5b50610579611337565b6040516105869190613820565b60405180910390f35b34801561059b57600080fd5b506105b660048036038101906105b19190612eae565b611361565b005b3480156105c457600080fd5b506105cd611421565b6040516105da91906139c9565b60405180910390f35b3480156105ef57600080fd5b5061060a60048036038101906106059190612fdd565b6114b3565b005b34801561061857600080fd5b50610633600480360381019061062e9190612f62565b6114c9565b005b34801561064157600080fd5b5061065c600480360381019061065791906131b3565b61152b565b60405161066991906139c9565b60405180910390f35b34801561067e57600080fd5b5061068761153d565b6040516106949190613820565b60405180910390f35b3480156106a957600080fd5b506106c460048036038101906106bf91906130a8565b611563565b6040516106d19190613c8b565b60405180910390f35b3480156106e657600080fd5b506106ef6115f5565b6040516106fc91906139c9565b60405180910390f35b34801561071157600080fd5b5061072c60048036038101906107279190612ed7565b611632565b60405161073991906138e7565b60405180910390f35b34801561074e57600080fd5b5061076960048036038101906107649190612eae565b611646565b005b34801561077757600080fd5b50610792600480360381019061078d91906131dc565b61173e565b005b60007f80ac58cd000000000000000000000000000000000000000000000000000000007bffffffffffffffffffffffffffffffffffffffffffffffffffffffff1916827bffffffffffffffffffffffffffffffffffffffffffffffffffffffff1916148061085f57507f5b5e139f000000000000000000000000000000000000000000000000000000007bffffffffffffffffffffffffffffffffffffffffffffffffffffffff1916827bffffffffffffffffffffffffffffffffffffffffffffffffffffffff1916145b8061086f575061086e82611934565b5b9050919050565b60606000805461088590613f89565b80601f01602080910402602001604051908101604052809291908181526020018280546108b190613f89565b80156108fe5780601f106108d3576101008083540402835291602001916108fe565b820191906000526020600020905b8154815290600101906020018083116108e157829003601f168201915b5050505050905090565b60006109138261199e565b610952576040517f08c379a000000000000000000000000000000000000000000000000000000000815260040161094990613bcb565b60405180910390fd5b6004600083815260200190815260200160002060009054906101000a900473ffffffffffffffffffffffffffffffffffffffff169050919050565b600061099882610e59565b90508073ffffffffffffffffffffffffffffffffffffffff168373ffffffffffffffffffffffffffffffffffffffff161415610a09576040517f08c379a0000000000000000000000000000000000000000000000000000000008152600401610a0090613c2b565b60405180910390fd5b8073ffffffffffffffffffffffffffffffffffffffff16610a28611a0a565b73ffffffffffffffffffffffffffffffffffffffff161480610a575750610a5681610a51611a0a565b611632565b5b610a96576040517f08c379a0000000000000000000000000000000000000000000000000000000008152600401610a8d90613b0b565b60405180910390fd5b610aa08383611a19565b505050565b606060006040518060600160405280600860008a73ffffffffffffffffffffffffffffffffffffffff1673ffffffffffffffffffffffffffffffffffffffff1681526020019081526020016000205481526020018873ffffffffffffffffffffffffffffffffffffffff168152602001878152509050610b288782878787611ad2565b610b67576040517f08c379a0000000000000000000000000000000000000000000000000000000008152600401610b5e90613c0b565b60405180910390fd5b610bba6001600860008a73ffffffffffffffffffffffffffffffffffffffff1673ffffffffffffffffffffffffffffffffffffffff16815260200190815260200160002054611bdb90919063ffffffff16565b600860008973ffffffffffffffffffffffffffffffffffffffff1673ffffffffffffffffffffffffffffffffffffffff168152602001908152602001600020819055507f5845892132946850460bff5a0083f71031bc5bf9aadcd40f1de79423eac9b10b873388604051610c309392919061383b565b60405180910390a16000803073ffffffffffffffffffffffffffffffffffffffff16888a604051602001610c6592919061379d565b604051602081830303815290604052604051610c819190613786565b6000604051808303816000865af19150503d8060008114610cbe576040519150601f19603f3d011682016040523d82523d6000602084013e610cc3565b606091505b509150915081610d08576040517f08c379a0000000000000000000000000000000000000000000000000000000008152600401610cff90613a2b565b60405180910390fd5b80935050505095945050505050565b6040518060400160405280600181526020017f310000000000000000000000000000000000000000000000000000000000000081525081565b600d8060000154905081565b60006001610d6a600a611bf1565b610d749190613e64565b905090565b6000600754905090565b610d94610d8e611a0a565b82611bff565b610dd3576040517f08c379a0000000000000000000000000000000000000000000000000000000008152600401610dca90613c4b565b60405180910390fd5b610dde838383611cdd565b505050565b6000600860008373ffffffffffffffffffffffffffffffffffffffff1673ffffffffffffffffffffffffffffffffffffffff168152602001908152602001600020549050919050565b6000804690508091505090565b610e54838383604051806020016040528060008152506114c9565b505050565b6000806002600084815260200190815260200160002060009054906101000a900473ffffffffffffffffffffffffffffffffffffffff169050600073ffffffffffffffffffffffffffffffffffffffff168173ffffffffffffffffffffffffffffffffffffffff161415610f02576040517f08c379a0000000000000000000000000000000000000000000000000000000008152600401610ef990613b4b565b60405180910390fd5b80915050919050565b606060006001610f1b600d611bf1565b610f259190613ddd565b905060008167ffffffffffffffff811115610f69577f4e487b7100000000000000000000000000000000000000000000000000000000600052604160045260246000fd5b604051908082528060200260200182016040528015610fa257816020015b610f8f612c55565b815260200190600190039081610f875790505b50905060005b8281101561109f576000600f600083815260200190815260200160002060405180608001604052908160008201548152602001600182015481526020016002820160009054906101000a900473ffffffffffffffffffffffffffffffffffffffff1673ffffffffffffffffffffffffffffffffffffffff1673ffffffffffffffffffffffffffffffffffffffff168152602001600382015481525050905080838381518110611080577f4e487b7100000000000000000000000000000000000000000000000000000000600052603260045260246000fd5b602002602001018190525050808061109790613fec565b915050610fa8565b50809250505090565b60008073ffffffffffffffffffffffffffffffffffffffff168273ffffffffffffffffffffffffffffffffffffffff161415611119576040517f08c379a000000000000000000000000000000000000000000000000000000000815260040161111090613b2b565b60405180910390fd5b600360008373ffffffffffffffffffffffffffffffffffffffff1673ffffffffffffffffffffffffffffffffffffffff168152602001908152602001600020549050919050565b611168611a0a565b73ffffffffffffffffffffffffffffffffffffffff16611186611337565b73ffffffffffffffffffffffffffffffffffffffff16146111dc576040517f08c379a00000000000000000000000000000000000000000000000000000000081526004016111d390613beb565b60405180910390fd5b6111e66000611f44565b565b6111f0611a0a565b73ffffffffffffffffffffffffffffffffffffffff1661120e611337565b73ffffffffffffffffffffffffffffffffffffffff1614611264576040517f08c379a000000000000000000000000000000000000000000000000000000000815260040161125b90613beb565b60405180910390fd5b6000611270600a611bf1565b905061127c600a61184a565b611286828261200a565b5050565b6000806000600f600085815260200190815260200160002060405180608001604052908160008201548152602001600182015481526020016002820160009054906101000a900473ffffffffffffffffffffffffffffffffffffffff1673ffffffffffffffffffffffffffffffffffffffff1673ffffffffffffffffffffffffffffffffffffffff1681526020016003820154815250509050806000015181602001519250925050915091565b6000600960009054906101000a900473ffffffffffffffffffffffffffffffffffffffff16905090565b611369611a0a565b73ffffffffffffffffffffffffffffffffffffffff16611387611337565b73ffffffffffffffffffffffffffffffffffffffff16146113dd576040517f08c379a00000000000000000000000000000000000000000000000000000000081526004016113d490613beb565b60405180910390fd5b80600e60006101000a81548173ffffffffffffffffffffffffffffffffffffffff021916908373ffffffffffffffffffffffffffffffffffffffff16021790555050565b60606001805461143090613f89565b80601f016020809104026020016040519081016040528092919081815260200182805461145c90613f89565b80156114a95780601f1061147e576101008083540402835291602001916114a9565b820191906000526020600020905b81548152906001019060200180831161148c57829003601f168201915b5050505050905090565b6114c56114be611a0a565b8383612028565b5050565b6114da6114d4611a0a565b83611bff565b611519576040517f08c379a000000000000000000000000000000000000000000000000000000000815260040161151090613c4b565b60405180910390fd5b61152584848484612195565b50505050565b6060611536826121f1565b9050919050565b600e60009054906101000a900473ffffffffffffffffffffffffffffffffffffffff1681565b6000600e60009054906101000a900473ffffffffffffffffffffffffffffffffffffffff1673ffffffffffffffffffffffffffffffffffffffff163373ffffffffffffffffffffffffffffffffffffffff16146115bf57600080fd5b6115c9600d61184a565b60006115d5600d611bf1565b90506115e18482612343565b6115eb818461251d565b8091505092915050565b60606040518060400160405280600781526020017f697066733a2f2f00000000000000000000000000000000000000000000000000815250905090565b600061163e8383612591565b905092915050565b61164e611a0a565b73ffffffffffffffffffffffffffffffffffffffff1661166c611337565b73ffffffffffffffffffffffffffffffffffffffff16146116c2576040517f08c379a00000000000000000000000000000000000000000000000000000000081526004016116b990613beb565b60405180910390fd5b600073ffffffffffffffffffffffffffffffffffffffff168173ffffffffffffffffffffffffffffffffffffffff161415611732576040517f08c379a000000000000000000000000000000000000000000000000000000000815260040161172990613a0b565b60405180910390fd5b61173b81611f44565b50565b600e60009054906101000a900473ffffffffffffffffffffffffffffffffffffffff1673ffffffffffffffffffffffffffffffffffffffff163373ffffffffffffffffffffffffffffffffffffffff161461179857600080fd5b8273ffffffffffffffffffffffffffffffffffffffff166117b885610e59565b73ffffffffffffffffffffffffffffffffffffffff161461180e576040517f08c379a000000000000000000000000000000000000000000000000000000000815260040161180590613c6b565b60405180910390fd5b81600f60008681526020019081526020016000206000018190555080600f60008681526020019081526020016000206001018190555050505050565b6001816000016000828254019250508190555050565b60003073ffffffffffffffffffffffffffffffffffffffff163373ffffffffffffffffffffffffffffffffffffffff16141561190a57600080368080601f016020809104026020016040519081016040528093929190818152602001838380828437600081840152601f19601f820116905080830192505050505050509050600080369050905073ffffffffffffffffffffffffffffffffffffffff81830151169250505061190e565b3390505b90565b6000808273ffffffffffffffffffffffffffffffffffffffff163b119050919050565b60007f01ffc9a7000000000000000000000000000000000000000000000000000000007bffffffffffffffffffffffffffffffffffffffffffffffffffffffff1916827bffffffffffffffffffffffffffffffffffffffffffffffffffffffff1916149050919050565b60008073ffffffffffffffffffffffffffffffffffffffff166002600084815260200190815260200160002060009054906101000a900473ffffffffffffffffffffffffffffffffffffffff1673ffffffffffffffffffffffffffffffffffffffff1614159050919050565b6000611a14611860565b905090565b816004600083815260200190815260200160002060006101000a81548173ffffffffffffffffffffffffffffffffffffffff021916908373ffffffffffffffffffffffffffffffffffffffff160217905550808273ffffffffffffffffffffffffffffffffffffffff16611a8c83610e59565b73ffffffffffffffffffffffffffffffffffffffff167f8c5be1e5ebec7d5bd14f71427d1e84f3dd0314c0f7b2291e5b200ac8c7c3b92560405160405180910390a45050565b60008073ffffffffffffffffffffffffffffffffffffffff168673ffffffffffffffffffffffffffffffffffffffff161415611b43576040517f08c379a0000000000000000000000000000000000000000000000000000000008152600401611b3a90613aeb565b60405180910390fd5b6001611b56611b5187612693565b6126fb565b83868660405160008152602001604052604051611b769493929190613962565b6020604051602081039080840390855afa158015611b98573d6000803e3d6000fd5b5050506020604051035173ffffffffffffffffffffffffffffffffffffffff168673ffffffffffffffffffffffffffffffffffffffff1614905095945050505050565b60008183611be99190613ddd565b905092915050565b600081600001549050919050565b6000611c0a8261199e565b611c49576040517f08c379a0000000000000000000000000000000000000000000000000000000008152600401611c4090613acb565b60405180910390fd5b6000611c5483610e59565b90508073ffffffffffffffffffffffffffffffffffffffff168473ffffffffffffffffffffffffffffffffffffffff161480611c965750611c958185611632565b5b80611cd457508373ffffffffffffffffffffffffffffffffffffffff16611cbc84610908565b73ffffffffffffffffffffffffffffffffffffffff16145b91505092915050565b8273ffffffffffffffffffffffffffffffffffffffff16611cfd82610e59565b73ffffffffffffffffffffffffffffffffffffffff1614611d53576040517f08c379a0000000000000000000000000000000000000000000000000000000008152600401611d4a90613a4b565b60405180910390fd5b600073ffffffffffffffffffffffffffffffffffffffff168273ffffffffffffffffffffffffffffffffffffffff161415611dc3576040517f08c379a0000000000000000000000000000000000000000000000000000000008152600401611dba90613a8b565b60405180910390fd5b611dce838383612734565b611dd9600082611a19565b6001600360008573ffffffffffffffffffffffffffffffffffffffff1673ffffffffffffffffffffffffffffffffffffffff1681526020019081526020016000206000828254611e299190613e64565b925050819055506001600360008473ffffffffffffffffffffffffffffffffffffffff1673ffffffffffffffffffffffffffffffffffffffff1681526020019081526020016000206000828254611e809190613ddd565b92505081905550816002600083815260200190815260200160002060006101000a81548173ffffffffffffffffffffffffffffffffffffffff021916908373ffffffffffffffffffffffffffffffffffffffff160217905550808273ffffffffffffffffffffffffffffffffffffffff168473ffffffffffffffffffffffffffffffffffffffff167fddf252ad1be2c89b69c2b068fc378daa952ba7f163c4a11628f55a4df523b3ef60405160405180910390a4611f3f838383612739565b505050565b6000600960009054906101000a900473ffffffffffffffffffffffffffffffffffffffff16905081600960006101000a81548173ffffffffffffffffffffffffffffffffffffffff021916908373ffffffffffffffffffffffffffffffffffffffff1602179055508173ffffffffffffffffffffffffffffffffffffffff168173ffffffffffffffffffffffffffffffffffffffff167f8be0079c531659141344cd1fd0a4f28419497f9722a3daafe3b4186f6b6457e060405160405180910390a35050565b6120248282604051806020016040528060008152506127ae565b5050565b8173ffffffffffffffffffffffffffffffffffffffff168373ffffffffffffffffffffffffffffffffffffffff161415612097576040517f08c379a000000000000000000000000000000000000000000000000000000000815260040161208e90613aab565b60405180910390fd5b80600560008573ffffffffffffffffffffffffffffffffffffffff1673ffffffffffffffffffffffffffffffffffffffff16815260200190815260200160002060008473ffffffffffffffffffffffffffffffffffffffff1673ffffffffffffffffffffffffffffffffffffffff16815260200190815260200160002060006101000a81548160ff0219169083151502179055508173ffffffffffffffffffffffffffffffffffffffff168373ffffffffffffffffffffffffffffffffffffffff167f17307eab39ab6107e8899845ad3d59bd9653f200f220920489ca2b5937696c318360405161218891906138e7565b60405180910390a3505050565b6121a0848484611cdd565b6121ac84848484612809565b6121eb576040517f08c379a00000000000000000000000000000000000000000000000000000000081526004016121e2906139eb565b60405180910390fd5b50505050565b60606121fc8261199e565b61223b576040517f08c379a000000000000000000000000000000000000000000000000000000000815260040161223290613bab565b60405180910390fd5b6000600c6000848152602001908152602001600020805461225b90613f89565b80601f016020809104026020016040519081016040528092919081815260200182805461228790613f89565b80156122d45780601f106122a9576101008083540402835291602001916122d4565b820191906000526020600020905b8154815290600101906020018083116122b757829003601f168201915b5050505050905060006122e56129a0565b90506000815114156122fb57819250505061233e565b6000825111156123305780826040516020016123189291906137c5565b6040516020818303038152906040529250505061233e565b612339846129b7565b925050505b919050565b600073ffffffffffffffffffffffffffffffffffffffff168273ffffffffffffffffffffffffffffffffffffffff1614156123b3576040517f08c379a00000000000000000000000000000000000000000000000000000000081526004016123aa90613b8b565b60405180910390fd5b6123bc8161199e565b156123fc576040517f08c379a00000000000000000000000000000000000000000000000000000000081526004016123f390613a6b565b60405180910390fd5b61240860008383612734565b6001600360008473ffffffffffffffffffffffffffffffffffffffff1673ffffffffffffffffffffffffffffffffffffffff16815260200190815260200160002060008282546124589190613ddd565b92505081905550816002600083815260200190815260200160002060006101000a81548173ffffffffffffffffffffffffffffffffffffffff021916908373ffffffffffffffffffffffffffffffffffffffff160217905550808273ffffffffffffffffffffffffffffffffffffffff16600073ffffffffffffffffffffffffffffffffffffffff167fddf252ad1be2c89b69c2b068fc378daa952ba7f163c4a11628f55a4df523b3ef60405160405180910390a461251960008383612739565b5050565b6125268261199e565b612565576040517f08c379a000000000000000000000000000000000000000000000000000000000815260040161255c90613b6b565b60405180910390fd5b80600c6000848152602001908152602001600020908051906020019061258c929190612c93565b505050565b600080600b60009054906101000a900473ffffffffffffffffffffffffffffffffffffffff1690508273ffffffffffffffffffffffffffffffffffffffff168173ffffffffffffffffffffffffffffffffffffffff1663c4552791866040518263ffffffff1660e01b81526004016126099190613820565b60206040518083038186803b15801561262157600080fd5b505afa158015612635573d6000803e3d6000fd5b505050506040513d601f19601f82011682018060405250810190612659919061318a565b73ffffffffffffffffffffffffffffffffffffffff16141561267f57600191505061268d565b61268984846129f1565b9150505b92915050565b60006040518060800160405280604381526020016147d06043913980519060200120826000015183602001518460400151805190602001206040516020016126de949392919061391d565b604051602081830303815290604052805190602001209050919050565b6000612705610d79565b826040516020016127179291906137e9565b604051602081830303815290604052805190602001209050919050565b505050565b81600f600083815260200190815260200160002060020160006101000a81548173ffffffffffffffffffffffffffffffffffffffff021916908373ffffffffffffffffffffffffffffffffffffffff16021790555080600f600083815260200190815260200160002060030181905550505050565b6127b88383612343565b6127c56000848484612809565b612804576040517f08c379a00000000000000000000000000000000000000000000000000000000081526004016127fb906139eb565b60405180910390fd5b505050565b600061282a8473ffffffffffffffffffffffffffffffffffffffff16612a85565b15612993578373ffffffffffffffffffffffffffffffffffffffff1663150b7a02612853611a0a565b8786866040518563ffffffff1660e01b81526004016128759493929190613879565b602060405180830381600087803b15801561288f57600080fd5b505af19250505080156128c057506040513d601f19601f820116820180604052508101906128bd9190613161565b60015b612943573d80600081146128f0576040519150601f19603f3d011682016040523d82523d6000602084013e6128f5565b606091505b5060008151141561293b576040517f08c379a0000000000000000000000000000000000000000000000000000000008152600401612932906139eb565b60405180910390fd5b805181602001fd5b63150b7a0260e01b7bffffffffffffffffffffffffffffffffffffffffffffffffffffffff1916817bffffffffffffffffffffffffffffffffffffffffffffffffffffffff191614915050612998565b600190505b949350505050565b606060405180602001604052806000815250905090565b60606129c16115f5565b6129ca83612aa8565b6040516020016129db9291906137c5565b6040516020818303038152906040529050919050565b6000600560008473ffffffffffffffffffffffffffffffffffffffff1673ffffffffffffffffffffffffffffffffffffffff16815260200190815260200160002060008373ffffffffffffffffffffffffffffffffffffffff1673ffffffffffffffffffffffffffffffffffffffff16815260200190815260200160002060009054906101000a900460ff16905092915050565b6000808273ffffffffffffffffffffffffffffffffffffffff163b119050919050565b60606000821415612af0576040518060400160405280600181526020017f30000000000000000000000000000000000000000000000000000000000000008152509050612c50565b600082905060005b60008214612b22578080612b0b90613fec565b915050600a82612b1b9190613e33565b9150612af8565b60008167ffffffffffffffff811115612b64577f4e487b7100000000000000000000000000000000000000000000000000000000600052604160045260246000fd5b6040519080825280601f01601f191660200182016040528015612b965781602001600182028036833780820191505090505b5090505b60008514612c4957600182612baf9190613e64565b9150600a85612bbe9190614063565b6030612bca9190613ddd565b60f81b818381518110612c06577f4e487b7100000000000000000000000000000000000000000000000000000000600052603260045260246000fd5b60200101907effffffffffffffffffffffffffffffffffffffffffffffffffffffffffffff1916908160001a905350600a85612c429190613e33565b9450612b9a565b8093505050505b919050565b60405180608001604052806000815260200160008152602001600073ffffffffffffffffffffffffffffffffffffffff168152602001600081525090565b828054612c9f90613f89565b90600052602060002090601f016020900481019282612cc15760008555612d08565b82601f10612cda57805160ff1916838001178555612d08565b82800160010185558215612d08579182015b82811115612d07578251825591602001919060010190612cec565b5b509050612d159190612d19565b5090565b5b80821115612d32576000816000905550600101612d1a565b5090565b6000612d49612d4484613cf4565b613ccf565b905082815260208101848484011115612d6157600080fd5b612d6c848285613f47565b509392505050565b6000612d87612d8284613d25565b613ccf565b905082815260208101848484011115612d9f57600080fd5b612daa848285613f47565b509392505050565b600081359050612dc18161472e565b92915050565b600081359050612dd681614745565b92915050565b600081359050612deb8161475c565b92915050565b600081359050612e0081614773565b92915050565b600081519050612e1581614773565b92915050565b600082601f830112612e2c57600080fd5b8135612e3c848260208601612d36565b91505092915050565b600081519050612e548161478a565b92915050565b600082601f830112612e6b57600080fd5b8135612e7b848260208601612d74565b91505092915050565b600081359050612e93816147a1565b92915050565b600081359050612ea8816147b8565b92915050565b600060208284031215612ec057600080fd5b6000612ece84828501612db2565b91505092915050565b60008060408385031215612eea57600080fd5b6000612ef885828601612db2565b9250506020612f0985828601612db2565b9150509250929050565b600080600060608486031215612f2857600080fd5b6000612f3686828701612db2565b9350506020612f4786828701612db2565b9250506040612f5886828701612e84565b9150509250925092565b60008060008060808587031215612f7857600080fd5b6000612f8687828801612db2565b9450506020612f9787828801612db2565b9350506040612fa887828801612e84565b925050606085013567ffffffffffffffff811115612fc557600080fd5b612fd187828801612e1b565b91505092959194509250565b60008060408385031215612ff057600080fd5b6000612ffe85828601612db2565b925050602061300f85828601612dc7565b9150509250929050565b600080600080600060a0868803121561303157600080fd5b600061303f88828901612db2565b955050602086013567ffffffffffffffff81111561305c57600080fd5b61306888828901612e1b565b945050604061307988828901612ddc565b935050606061308a88828901612ddc565b925050608061309b88828901612e99565b9150509295509295909350565b600080604083850312156130bb57600080fd5b60006130c985828601612db2565b925050602083013567ffffffffffffffff8111156130e657600080fd5b6130f285828601612e5a565b9150509250929050565b6000806040838503121561310f57600080fd5b600061311d85828601612db2565b925050602061312e85828601612e84565b9150509250929050565b60006020828403121561314a57600080fd5b600061315884828501612df1565b91505092915050565b60006020828403121561317357600080fd5b600061318184828501612e06565b91505092915050565b60006020828403121561319c57600080fd5b60006131aa84828501612e45565b91505092915050565b6000602082840312156131c557600080fd5b60006131d384828501612e84565b91505092915050565b600080600080608085870312156131f257600080fd5b600061320087828801612e84565b945050602061321187828801612db2565b935050604061322287828801612e84565b925050606061323387828801612e84565b91505092959194509250565b600061324b8383613704565b60808301905092915050565b61326081613eaa565b82525050565b61326f81613e98565b82525050565b61327e81613e98565b82525050565b61329561329082613e98565b614035565b82525050565b60006132a682613d66565b6132b08185613d94565b93506132bb83613d56565b8060005b838110156132ec5781516132d3888261323f565b97506132de83613d87565b9250506001810190506132bf565b5085935050505092915050565b61330281613ebc565b82525050565b61331181613ec8565b82525050565b61332861332382613ec8565b614047565b82525050565b600061333982613d71565b6133438185613da5565b9350613353818560208601613f56565b61335c81614150565b840191505092915050565b600061337282613d71565b61337c8185613db6565b935061338c818560208601613f56565b80840191505092915050565b60006133a382613d7c565b6133ad8185613dc1565b93506133bd818560208601613f56565b6133c681614150565b840191505092915050565b60006133dc82613d7c565b6133e68185613dd2565b93506133f6818560208601613f56565b80840191505092915050565b600061340f603283613dc1565b915061341a8261416e565b604082019050919050565b6000613432602683613dc1565b915061343d826141bd565b604082019050919050565b6000613455601c83613dc1565b91506134608261420c565b602082019050919050565b6000613478602583613dc1565b915061348382614235565b604082019050919050565b600061349b601c83613dc1565b91506134a682614284565b602082019050919050565b60006134be600283613dd2565b91506134c9826142ad565b600282019050919050565b60006134e1602483613dc1565b91506134ec826142d6565b604082019050919050565b6000613504601983613dc1565b915061350f82614325565b602082019050919050565b6000613527602c83613dc1565b91506135328261434e565b604082019050919050565b600061354a602583613dc1565b91506135558261439d565b604082019050919050565b600061356d603883613dc1565b9150613578826143ec565b604082019050919050565b6000613590602a83613dc1565b915061359b8261443b565b604082019050919050565b60006135b3602983613dc1565b91506135be8261448a565b604082019050919050565b60006135d6602e83613dc1565b91506135e1826144d9565b604082019050919050565b60006135f9602083613dc1565b915061360482614528565b602082019050919050565b600061361c603183613dc1565b915061362782614551565b604082019050919050565b600061363f602c83613dc1565b915061364a826145a0565b604082019050919050565b6000613662602083613dc1565b915061366d826145ef565b602082019050919050565b6000613685602183613dc1565b915061369082614618565b604082019050919050565b60006136a8602183613dc1565b91506136b382614667565b604082019050919050565b60006136cb603183613dc1565b91506136d6826146b6565b604082019050919050565b60006136ee601583613dc1565b91506136f982614705565b602082019050919050565b60808201600082015161371a6000850182613759565b50602082015161372d6020850182613759565b5060408201516137406040850182613266565b5060608201516137536060850182613759565b50505050565b61376281613f30565b82525050565b61377181613f30565b82525050565b61378081613f3a565b82525050565b60006137928284613367565b915081905092915050565b60006137a98285613367565b91506137b58284613284565b6014820191508190509392505050565b60006137d182856133d1565b91506137dd82846133d1565b91508190509392505050565b60006137f4826134b1565b91506138008285613317565b6020820191506138108284613317565b6020820191508190509392505050565b60006020820190506138356000830184613275565b92915050565b60006060820190506138506000830186613275565b61385d6020830185613257565b818103604083015261386f818461332e565b9050949350505050565b600060808201905061388e6000830187613275565b61389b6020830186613275565b6138a86040830185613768565b81810360608301526138ba818461332e565b905095945050505050565b600060208201905081810360008301526138df818461329b565b905092915050565b60006020820190506138fc60008301846132f9565b92915050565b60006020820190506139176000830184613308565b92915050565b60006080820190506139326000830187613308565b61393f6020830186613768565b61394c6040830185613275565b6139596060830184613308565b95945050505050565b60006080820190506139776000830187613308565b6139846020830186613777565b6139916040830185613308565b61399e6060830184613308565b95945050505050565b600060208201905081810360008301526139c1818461332e565b905092915050565b600060208201905081810360008301526139e38184613398565b905092915050565b60006020820190508181036000830152613a0481613402565b9050919050565b60006020820190508181036000830152613a2481613425565b9050919050565b60006020820190508181036000830152613a4481613448565b9050919050565b60006020820190508181036000830152613a648161346b565b9050919050565b60006020820190508181036000830152613a848161348e565b9050919050565b60006020820190508181036000830152613aa4816134d4565b9050919050565b60006020820190508181036000830152613ac4816134f7565b9050919050565b60006020820190508181036000830152613ae48161351a565b9050919050565b60006020820190508181036000830152613b048161353d565b9050919050565b60006020820190508181036000830152613b2481613560565b9050919050565b60006020820190508181036000830152613b4481613583565b9050919050565b60006020820190508181036000830152613b64816135a6565b9050919050565b60006020820190508181036000830152613b84816135c9565b9050919050565b60006020820190508181036000830152613ba4816135ec565b9050919050565b60006020820190508181036000830152613bc48161360f565b9050919050565b60006020820190508181036000830152613be481613632565b9050919050565b60006020820190508181036000830152613c0481613655565b9050919050565b60006020820190508181036000830152613c2481613678565b9050919050565b60006020820190508181036000830152613c448161369b565b9050919050565b60006020820190508181036000830152613c64816136be565b9050919050565b60006020820190508181036000830152613c84816136e1565b9050919050565b6000602082019050613ca06000830184613768565b92915050565b6000604082019050613cbb6000830185613768565b613cc86020830184613768565b9392505050565b6000613cd9613cea565b9050613ce58282613fbb565b919050565b6000604051905090565b600067ffffffffffffffff821115613d0f57613d0e614121565b5b613d1882614150565b9050602081019050919050565b600067ffffffffffffffff821115613d4057613d3f614121565b5b613d4982614150565b9050602081019050919050565b6000819050602082019050919050565b600081519050919050565b600081519050919050565b600081519050919050565b6000602082019050919050565b600082825260208201905092915050565b600082825260208201905092915050565b600081905092915050565b600082825260208201905092915050565b600081905092915050565b6000613de882613f30565b9150613df383613f30565b9250827fffffffffffffffffffffffffffffffffffffffffffffffffffffffffffffffff03821115613e2857613e27614094565b5b828201905092915050565b6000613e3e82613f30565b9150613e4983613f30565b925082613e5957613e586140c3565b5b828204905092915050565b6000613e6f82613f30565b9150613e7a83613f30565b925082821015613e8d57613e8c614094565b5b828203905092915050565b6000613ea382613f10565b9050919050565b6000613eb582613f10565b9050919050565b60008115159050919050565b6000819050919050565b60007fffffffff0000000000000000000000000000000000000000000000000000000082169050919050565b6000613f0982613e98565b9050919050565b600073ffffffffffffffffffffffffffffffffffffffff82169050919050565b6000819050919050565b600060ff82169050919050565b82818337600083830152505050565b60005b83811015613f74578082015181840152602081019050613f59565b83811115613f83576000848401525b50505050565b60006002820490506001821680613fa157607f821691505b60208210811415613fb557613fb46140f2565b5b50919050565b613fc482614150565b810181811067ffffffffffffffff82111715613fe357613fe2614121565b5b80604052505050565b6000613ff782613f30565b91507fffffffffffffffffffffffffffffffffffffffffffffffffffffffffffffffff82141561402a57614029614094565b5b600182019050919050565b600061404082614051565b9050919050565b6000819050919050565b600061405c82614161565b9050919050565b600061406e82613f30565b915061407983613f30565b925082614089576140886140c3565b5b828206905092915050565b7f4e487b7100000000000000000000000000000000000000000000000000000000600052601160045260246000fd5b7f4e487b7100000000000000000000000000000000000000000000000000000000600052601260045260246000fd5b7f4e487b7100000000000000000000000000000000000000000000000000000000600052602260045260246000fd5b7f4e487b7100000000000000000000000000000000000000000000000000000000600052604160045260246000fd5b6000601f19601f8301169050919050565b60008160601b9050919050565b7f4552433732313a207472616e7366657220746f206e6f6e20455243373231526560008201527f63656976657220696d706c656d656e7465720000000000000000000000000000602082015250565b7f4f776e61626c653a206e6577206f776e657220697320746865207a65726f206160008201527f6464726573730000000000000000000000000000000000000000000000000000602082015250565b7f46756e6374696f6e2063616c6c206e6f74207375636365737366756c00000000600082015250565b7f4552433732313a207472616e736665722066726f6d20696e636f72726563742060008201527f6f776e6572000000000000000000000000000000000000000000000000000000602082015250565b7f4552433732313a20746f6b656e20616c7265616479206d696e74656400000000600082015250565b7f1901000000000000000000000000000000000000000000000000000000000000600082015250565b7f4552433732313a207472616e7366657220746f20746865207a65726f2061646460008201527f7265737300000000000000000000000000000000000000000000000000000000602082015250565b7f4552433732313a20617070726f766520746f2063616c6c657200000000000000600082015250565b7f4552433732313a206f70657261746f7220717565727920666f72206e6f6e657860008201527f697374656e7420746f6b656e0000000000000000000000000000000000000000602082015250565b7f4e61746976654d6574615472616e73616374696f6e3a20494e56414c49445f5360008201527f49474e4552000000000000000000000000000000000000000000000000000000602082015250565b7f4552433732313a20617070726f76652063616c6c6572206973206e6f74206f7760008201527f6e6572206e6f7220617070726f76656420666f7220616c6c0000000000000000602082015250565b7f4552433732313a2062616c616e636520717565727920666f7220746865207a6560008201527f726f206164647265737300000000000000000000000000000000000000000000602082015250565b7f4552433732313a206f776e657220717565727920666f72206e6f6e657869737460008201527f656e7420746f6b656e0000000000000000000000000000000000000000000000602082015250565b7f45524337323155524953746f726167653a2055524920736574206f66206e6f6e60008201527f6578697374656e7420746f6b656e000000000000000000000000000000000000602082015250565b7f4552433732313a206d696e7420746f20746865207a65726f2061646472657373600082015250565b7f45524337323155524953746f726167653a2055524920717565727920666f722060008201527f6e6f6e6578697374656e7420746f6b656e000000000000000000000000000000602082015250565b7f4552433732313a20617070726f76656420717565727920666f72206e6f6e657860008201527f697374656e7420746f6b656e0000000000000000000000000000000000000000602082015250565b7f4f776e61626c653a2063616c6c6572206973206e6f7420746865206f776e6572600082015250565b7f5369676e657220616e64207369676e617475726520646f206e6f74206d61746360008201527f6800000000000000000000000000000000000000000000000000000000000000602082015250565b7f4552433732313a20617070726f76616c20746f2063757272656e74206f776e6560008201527f7200000000000000000000000000000000000000000000000000000000000000602082015250565b7f4552433732313a207472616e736665722063616c6c6572206973206e6f74206f60008201527f776e6572206e6f7220617070726f766564000000000000000000000000000000602082015250565b7f6e6f7420616c6c6f77656420746f207570646174650000000000000000000000600082015250565b61473781613e98565b811461474257600080fd5b50565b61474e81613ebc565b811461475957600080fd5b50565b61476581613ec8565b811461477057600080fd5b50565b61477c81613ed2565b811461478757600080fd5b50565b61479381613efe565b811461479e57600080fd5b50565b6147aa81613f30565b81146147b557600080fd5b50565b6147c181613f3a565b81146147cc57600080fd5b5056fe4d6574615472616e73616374696f6e2875696e74323536206e6f6e63652c616464726573732066726f6d2c62797465732066756e6374696f6e5369676e617475726529a2646970667358221220db24e7a839f738003a38ee8480825f63b787f3dedf0e9f3a6d6a14658680c67864736f6c63430008040033454950373132446f6d61696e28737472696e67206e616d652c737472696e672076657273696f6e2c6164647265737320766572696679696e67436f6e74726163742c627974657333322073616c7429",
  "devdoc": {
    "kind": "dev",
    "methods": {
      "approve(address,uint256)": {
        "details": "See {IERC721-approve}."
      },
      "balanceOf(address)": {
        "details": "See {IERC721-balanceOf}."
      },
      "getApproved(uint256)": {
        "details": "See {IERC721-getApproved}."
      },
      "mintTo(address)": {
        "details": "Mints a token to an address with a tokenURI.",
        "params": {
          "_to": "address of the future owner of the token"
        }
      },
      "name()": {
        "details": "See {IERC721Metadata-name}."
      },
      "owner()": {
        "details": "Returns the address of the current owner."
      },
      "ownerOf(uint256)": {
        "details": "See {IERC721-ownerOf}."
      },
      "renounceOwnership()": {
        "details": "Leaves the contract without owner. It will not be possible to call `onlyOwner` functions anymore. Can only be called by the current owner. NOTE: Renouncing ownership will leave the contract without an owner, thereby removing any functionality that is only available to the owner."
      },
      "safeTransferFrom(address,address,uint256)": {
        "details": "See {IERC721-safeTransferFrom}."
      },
      "safeTransferFrom(address,address,uint256,bytes)": {
        "details": "See {IERC721-safeTransferFrom}."
      },
      "setApprovalForAll(address,bool)": {
        "details": "See {IERC721-setApprovalForAll}."
      },
      "supportsInterface(bytes4)": {
        "details": "See {IERC165-supportsInterface}."
      },
      "symbol()": {
        "details": "See {IERC721Metadata-symbol}."
      },
      "totalSupply()": {
        "details": "Returns the total tokens minted so far. 1 is always subtracted from the Counter since it tracks the next available tokenId."
      },
      "transferFrom(address,address,uint256)": {
        "details": "See {IERC721-transferFrom}."
      },
      "transferOwnership(address)": {
        "details": "Transfers ownership of the contract to a new account (`newOwner`). Can only be called by the current owner."
      }
    },
    "version": 1
  },
  "userdoc": {
    "kind": "user",
    "methods": {
      "getLocation(uint256)": {
        "notice": "gets the location of the ship"
      },
      "getShips()": {
        "notice": "Returns all ships in the game"
      },
      "mint(address,string)": {
        "notice": "mints a new nft ship"
      },
      "setLocation(uint256,address,uint256,uint256)": {
        "notice": "secure, only allow calls from PlayerContract. DONE"
      }
    },
    "version": 1
  },
  "storageLayout": {
    "storage": [
      {
        "astId": 1429,
        "contract": "contracts/NFT.sol:Starship",
        "label": "_name",
        "offset": 0,
        "slot": "0",
        "type": "t_string_storage"
      },
      {
        "astId": 1431,
        "contract": "contracts/NFT.sol:Starship",
        "label": "_symbol",
        "offset": 0,
        "slot": "1",
        "type": "t_string_storage"
      },
      {
        "astId": 1435,
        "contract": "contracts/NFT.sol:Starship",
        "label": "_owners",
        "offset": 0,
        "slot": "2",
        "type": "t_mapping(t_uint256,t_address)"
      },
      {
        "astId": 1439,
        "contract": "contracts/NFT.sol:Starship",
        "label": "_balances",
        "offset": 0,
        "slot": "3",
        "type": "t_mapping(t_address,t_uint256)"
      },
      {
        "astId": 1443,
        "contract": "contracts/NFT.sol:Starship",
        "label": "_tokenApprovals",
        "offset": 0,
        "slot": "4",
        "type": "t_mapping(t_uint256,t_address)"
      },
      {
        "astId": 1449,
        "contract": "contracts/NFT.sol:Starship",
        "label": "_operatorApprovals",
        "offset": 0,
        "slot": "5",
        "type": "t_mapping(t_address,t_mapping(t_address,t_bool))"
      },
      {
        "astId": 130,
        "contract": "contracts/NFT.sol:Starship",
        "label": "_initialized",
        "offset": 0,
        "slot": "6",
        "type": "t_uint8"
      },
      {
        "astId": 133,
        "contract": "contracts/NFT.sol:Starship",
        "label": "_initializing",
        "offset": 1,
        "slot": "6",
        "type": "t_bool"
      },
      {
        "astId": 5100,
        "contract": "contracts/NFT.sol:Starship",
        "label": "domainSeperator",
        "offset": 0,
        "slot": "7",
        "type": "t_bytes32"
      },
      {
        "astId": 5219,
        "contract": "contracts/NFT.sol:Starship",
        "label": "nonces",
        "offset": 0,
        "slot": "8",
        "type": "t_mapping(t_address,t_uint256)"
      },
      {
        "astId": 617,
        "contract": "contracts/NFT.sol:Starship",
        "label": "_owner",
        "offset": 0,
        "slot": "9",
        "type": "t_address"
      },
      {
        "astId": 3537,
        "contract": "contracts/NFT.sol:Starship",
        "label": "_nextTokenId",
        "offset": 0,
        "slot": "10",
        "type": "t_struct(Counter)2881_storage"
      },
      {
        "astId": 3539,
        "contract": "contracts/NFT.sol:Starship",
        "label": "proxyRegistryAddress",
        "offset": 0,
        "slot": "11",
        "type": "t_address"
      },
      {
        "astId": 2416,
        "contract": "contracts/NFT.sol:Starship",
        "label": "_tokenURIs",
        "offset": 0,
        "slot": "12",
        "type": "t_mapping(t_uint256,t_string_storage)"
      },
      {
        "astId": 3705,
        "contract": "contracts/NFT.sol:Starship",
        "label": "tokenId",
        "offset": 0,
        "slot": "13",
        "type": "t_struct(Counter)2881_storage"
      },
      {
        "astId": 3716,
        "contract": "contracts/NFT.sol:Starship",
        "label": "playerContract",
        "offset": 0,
        "slot": "14",
        "type": "t_address"
      },
      {
        "astId": 3721,
        "contract": "contracts/NFT.sol:Starship",
        "label": "shipData",
        "offset": 0,
        "slot": "15",
        "type": "t_mapping(t_uint256,t_struct(ShipData)3714_storage)"
      }
    ],
    "types": {
      "t_address": {
        "encoding": "inplace",
        "label": "address",
        "numberOfBytes": "20"
      },
      "t_bool": {
        "encoding": "inplace",
        "label": "bool",
        "numberOfBytes": "1"
      },
      "t_bytes32": {
        "encoding": "inplace",
        "label": "bytes32",
        "numberOfBytes": "32"
      },
      "t_mapping(t_address,t_bool)": {
        "encoding": "mapping",
        "key": "t_address",
        "label": "mapping(address => bool)",
        "numberOfBytes": "32",
        "value": "t_bool"
      },
      "t_mapping(t_address,t_mapping(t_address,t_bool))": {
        "encoding": "mapping",
        "key": "t_address",
        "label": "mapping(address => mapping(address => bool))",
        "numberOfBytes": "32",
        "value": "t_mapping(t_address,t_bool)"
      },
      "t_mapping(t_address,t_uint256)": {
        "encoding": "mapping",
        "key": "t_address",
        "label": "mapping(address => uint256)",
        "numberOfBytes": "32",
        "value": "t_uint256"
      },
      "t_mapping(t_uint256,t_address)": {
        "encoding": "mapping",
        "key": "t_uint256",
        "label": "mapping(uint256 => address)",
        "numberOfBytes": "32",
        "value": "t_address"
      },
      "t_mapping(t_uint256,t_string_storage)": {
        "encoding": "mapping",
        "key": "t_uint256",
        "label": "mapping(uint256 => string)",
        "numberOfBytes": "32",
        "value": "t_string_storage"
      },
      "t_mapping(t_uint256,t_struct(ShipData)3714_storage)": {
        "encoding": "mapping",
        "key": "t_uint256",
        "label": "mapping(uint256 => struct Starship.ShipData)",
        "numberOfBytes": "32",
        "value": "t_struct(ShipData)3714_storage"
      },
      "t_string_storage": {
        "encoding": "bytes",
        "label": "string",
        "numberOfBytes": "32"
      },
      "t_struct(Counter)2881_storage": {
        "encoding": "inplace",
        "label": "struct Counters.Counter",
        "members": [
          {
            "astId": 2880,
            "contract": "contracts/NFT.sol:Starship",
            "label": "_value",
            "offset": 0,
            "slot": "0",
            "type": "t_uint256"
          }
        ],
        "numberOfBytes": "32"
      },
      "t_struct(ShipData)3714_storage": {
        "encoding": "inplace",
        "label": "struct Starship.ShipData",
        "members": [
          {
            "astId": 3707,
            "contract": "contracts/NFT.sol:Starship",
            "label": "x",
            "offset": 0,
            "slot": "0",
            "type": "t_uint256"
          },
          {
            "astId": 3709,
            "contract": "contracts/NFT.sol:Starship",
            "label": "y",
            "offset": 0,
            "slot": "1",
            "type": "t_uint256"
          },
          {
            "astId": 3711,
            "contract": "contracts/NFT.sol:Starship",
            "label": "owner",
            "offset": 0,
            "slot": "2",
            "type": "t_address"
          },
          {
            "astId": 3713,
            "contract": "contracts/NFT.sol:Starship",
            "label": "id",
            "offset": 0,
            "slot": "3",
            "type": "t_uint256"
          }
        ],
        "numberOfBytes": "128"
      },
      "t_uint256": {
        "encoding": "inplace",
        "label": "uint256",
        "numberOfBytes": "32"
      },
      "t_uint8": {
        "encoding": "inplace",
        "label": "uint8",
        "numberOfBytes": "1"
      }
    }
  }
}