{
  "address": "0x3a8EC8Ab58551A7967a63456Da20F02fe289C58b",
  "abi": [
    {
      "anonymous": false,
      "inputs": [
        {
          "indexed": false,
          "internalType": "uint8",
          "name": "version",
          "type": "uint8"
        }
      ],
      "name": "Initialized",
      "type": "event"
    },
    {
      "anonymous": false,
      "inputs": [
        {
          "indexed": true,
          "internalType": "address",
          "name": "previousOwner",
          "type": "address"
        },
        {
          "indexed": true,
          "internalType": "address",
          "name": "newOwner",
          "type": "address"
        }
      ],
      "name": "OwnershipTransferred",
      "type": "event"
    },
    {
      "inputs": [
        {
          "internalType": "uint256",
          "name": "_worldIndex",
          "type": "uint256"
        },
        {
          "internalType": "uint256",
          "name": "_length",
          "type": "uint256"
        },
        {
          "internalType": "uint256",
          "name": "_breadth",
          "type": "uint256"
        }
      ],
      "name": "defineWorldMap",
      "outputs": [],
      "stateMutability": "nonpayable",
      "type": "function"
    },
    {
      "inputs": [
        {
          "internalType": "uint256",
          "name": "_selectedWorldIndex",
          "type": "uint256"
        }
      ],
      "name": "deleteWorld",
      "outputs": [],
      "stateMutability": "nonpayable",
      "type": "function"
    },
    {
      "inputs": [
        {
          "internalType": "uint256",
          "name": "",
          "type": "uint256"
        }
      ],
      "name": "existingWorlds",
      "outputs": [
        {
          "internalType": "uint256",
          "name": "worldIndex",
          "type": "uint256"
        },
        {
          "internalType": "uint256",
          "name": "Length",
          "type": "uint256"
        },
        {
          "internalType": "uint256",
          "name": "Breadth",
          "type": "uint256"
        }
      ],
      "stateMutability": "view",
      "type": "function"
    },
    {
      "inputs": [
        {
          "internalType": "uint256",
          "name": "_planetId",
          "type": "uint256"
        }
      ],
      "name": "getPlanet",
      "outputs": [
        {
          "components": [
            {
              "internalType": "uint256",
              "name": "planetID",
              "type": "uint256"
            },
            {
              "internalType": "uint256",
              "name": "worldMapIndex",
              "type": "uint256"
            },
            {
              "internalType": "uint256",
              "name": "xCoord",
              "type": "uint256"
            },
            {
              "internalType": "uint256",
              "name": "yCoord",
              "type": "uint256"
            },
            {
              "internalType": "uint256",
              "name": "planetType",
              "type": "uint256"
            },
            {
              "internalType": "uint256",
              "name": "balance",
              "type": "uint256"
            }
          ],
          "internalType": "struct SharedStructs.Planet",
          "name": "",
          "type": "tuple"
        }
      ],
      "stateMutability": "view",
      "type": "function"
    },
    {
      "inputs": [
        {
          "internalType": "uint256",
          "name": "_worldId",
          "type": "uint256"
        }
      ],
      "name": "getPlanets",
      "outputs": [
        {
          "components": [
            {
              "internalType": "uint256",
              "name": "planetID",
              "type": "uint256"
            },
            {
              "internalType": "uint256",
              "name": "worldMapIndex",
              "type": "uint256"
            },
            {
              "internalType": "uint256",
              "name": "xCoord",
              "type": "uint256"
            },
            {
              "internalType": "uint256",
              "name": "yCoord",
              "type": "uint256"
            },
            {
              "internalType": "uint256",
              "name": "planetType",
              "type": "uint256"
            },
            {
              "internalType": "uint256",
              "name": "balance",
              "type": "uint256"
            }
          ],
          "internalType": "struct SharedStructs.Planet[]",
          "name": "",
          "type": "tuple[]"
        }
      ],
      "stateMutability": "view",
      "type": "function"
    },
    {
      "inputs": [
        {
          "internalType": "uint256",
          "name": "_selectedWorldIndex",
          "type": "uint256"
        }
      ],
      "name": "getWorldMap",
      "outputs": [
        {
          "components": [
            {
              "internalType": "uint256",
              "name": "worldIndex",
              "type": "uint256"
            },
            {
              "internalType": "uint256",
              "name": "Length",
              "type": "uint256"
            },
            {
              "internalType": "uint256",
              "name": "Breadth",
              "type": "uint256"
            }
          ],
          "internalType": "struct WorldMapCreator.WorldMap",
          "name": "",
          "type": "tuple"
        }
      ],
      "stateMutability": "view",
      "type": "function"
    },
    {
      "inputs": [],
      "name": "initialize",
      "outputs": [],
      "stateMutability": "nonpayable",
      "type": "function"
    },
    {
      "inputs": [
        {
          "internalType": "uint256",
          "name": "_worldMapIndex",
          "type": "uint256"
        },
        {
          "internalType": "uint256",
          "name": "_xCoord",
          "type": "uint256"
        },
        {
          "internalType": "uint256",
          "name": "_yCoord",
          "type": "uint256"
        },
        {
          "internalType": "uint256",
          "name": "_planetType",
          "type": "uint256"
        }
      ],
      "name": "manualCreatePlanet",
      "outputs": [
        {
          "internalType": "uint256",
          "name": "",
          "type": "uint256"
        }
      ],
      "stateMutability": "nonpayable",
      "type": "function"
    },
    {
      "inputs": [],
      "name": "owner",
      "outputs": [
        {
          "internalType": "address",
          "name": "",
          "type": "address"
        }
      ],
      "stateMutability": "view",
      "type": "function"
    },
    {
      "inputs": [],
      "name": "planetIndex",
      "outputs": [
        {
          "internalType": "uint256",
          "name": "",
          "type": "uint256"
        }
      ],
      "stateMutability": "view",
      "type": "function"
    },
    {
      "inputs": [
        {
          "internalType": "uint256",
          "name": "",
          "type": "uint256"
        },
        {
          "internalType": "uint256",
          "name": "",
          "type": "uint256"
        }
      ],
      "name": "planetsInWorld",
      "outputs": [
        {
          "internalType": "uint256",
          "name": "",
          "type": "uint256"
        }
      ],
      "stateMutability": "view",
      "type": "function"
    },
    {
      "inputs": [],
      "name": "renounceOwnership",
      "outputs": [],
      "stateMutability": "nonpayable",
      "type": "function"
    },
    {
      "inputs": [
        {
          "internalType": "address",
          "name": "newOwner",
          "type": "address"
        }
      ],
      "name": "transferOwnership",
      "outputs": [],
      "stateMutability": "nonpayable",
      "type": "function"
    }
  ],
  "transactionHash": "0xdc6c3b52289abbd945da9b697f34cbbc5471da40f6443a5454e8fd117e150f8d",
  "args": [],
  "numDeployments": 1,
  "solcInputHash": "6d824f0fd39aeb1a73164b872efbe39a",
  "bytecode": "0x608060405234801561001057600080fd5b506124f6806100206000396000f3fe60806040523480156200001157600080fd5b5060043610620000e25760003560e01c80638129fc1c1162000099578063a2b870db116200006f578063a2b870db1462000225578063a3f38e9b146200025d578063e2c7eb051462000293578063f2fde38b14620002c957620000e2565b80638129fc1c14620001c15780638a36781e14620001cd5780638da5cb5b146200020357620000e2565b806334efcb8e14620000e757806342c3159c146200011d578063450509a2146200013d57806348d62059146200015d5780636886c1261462000193578063715018a614620001b5575b600080fd5b620001056004803603810190620000ff919062001121565b620002e9565b60405162000114919062001682565b60405180910390f35b6200013b600480360381019062000135919062001121565b620003ab565b005b6200015b60048036038101906200015591906200118e565b6200045f565b005b6200017b600480360381019062000175919062001121565b620005a0565b6040516200018a91906200169f565b60405180910390f35b6200019d620005ed565b604051620001ac9190620016bc565b60405180910390f35b620001bf620005f3565b005b620001cb62000684565b005b620001eb6004803603810190620001e591906200114d565b62000794565b604051620001fa9190620016bc565b60405180910390f35b6200020d620007c6565b6040516200021c919062001558565b60405180910390f35b6200024360048036038101906200023d919062001121565b620007f0565b6040516200025493929190620016d9565b60405180910390f35b6200027b600480360381019062000275919062001121565b6200081a565b6040516200028a919062001575565b60405180910390f35b620002b16004803603810190620002ab9190620011e4565b620009dd565b604051620002c09190620016bc565b60405180910390f35b620002e76004803603810190620002e19190620010c9565b62000bbe565b005b620002f362000f74565b606860009054906101000a900473ffffffffffffffffffffffffffffffffffffffff1673ffffffffffffffffffffffffffffffffffffffff166334efcb8e836040518263ffffffff1660e01b8152600401620003509190620016bc565b60c06040518083038186803b1580156200036957600080fd5b505afa1580156200037e573d6000803e3d6000fd5b505050506040513d601f19601f82011682018060405250810190620003a49190620010f5565b9050919050565b620003b562000cc2565b73ffffffffffffffffffffffffffffffffffffffff16620003d5620007c6565b73ffffffffffffffffffffffffffffffffffffffff16146200042e576040517f08c379a000000000000000000000000000000000000000000000000000000000815260040162000425906200161c565b60405180910390fd5b6065600082815260200190815260200160002060008082016000905560018201600090556002820160009055505050565b6200046962000cc2565b73ffffffffffffffffffffffffffffffffffffffff1662000489620007c6565b73ffffffffffffffffffffffffffffffffffffffff1614620004e2576040517f08c379a0000000000000000000000000000000000000000000000000000000008152600401620004d9906200161c565b60405180910390fd5b60006065600085815260200190815260200160002060010154146200053e576040517f08c379a000000000000000000000000000000000000000000000000000000000815260040162000535906200163e565b60405180910390fd5b6200054862000faa565b6040518060600160405280858152602001848152602001838152509050806065600086815260200190815260200160002060008201518160000155602082015181600101556040820151816002015590505050505050565b620005aa62000faa565b6065600083815260200190815260200160002060405180606001604052908160008201548152602001600182015481526020016002820154815250509050919050565b60675481565b620005fd62000cc2565b73ffffffffffffffffffffffffffffffffffffffff166200061d620007c6565b73ffffffffffffffffffffffffffffffffffffffff161462000676576040517f08c379a00000000000000000000000000000000000000000000000000000000081526004016200066d906200161c565b60405180910390fd5b62000682600062000cca565b565b600062000692600162000d90565b90508015620006b7576001600060016101000a81548160ff0219169083151502179055505b620006c162000e8b565b6000606781905550604051620006d79062000fcb565b604051809103906000f080158015620006f4573d6000803e3d6000fd5b50606860006101000a81548173ffffffffffffffffffffffffffffffffffffffff021916908373ffffffffffffffffffffffffffffffffffffffff1602179055508015620007915760008060016101000a81548160ff0219169083151502179055507f7f26b83ff96e1f2b6a682f133852f6798a09c465da95921460cefb3847402498600160405162000788919062001599565b60405180910390a15b50565b60666020528160005260406000208181548110620007b157600080fd5b90600052602060002001600091509150505481565b6000603360009054906101000a900473ffffffffffffffffffffffffffffffffffffffff16905090565b60656020528060005260406000206000915090508060000154908060010154908060020154905083565b6060600060016067546200082f9190620017e6565b905060008167ffffffffffffffff81111562000874577f4e487b7100000000000000000000000000000000000000000000000000000000600052604160045260246000fd5b604051908082528060200260200182016040528015620008b157816020015b6200089d62000f74565b815260200190600190039081620008935790505b50905060005b82811015620009d2576000606860009054906101000a900473ffffffffffffffffffffffffffffffffffffffff1673ffffffffffffffffffffffffffffffffffffffff166334efcb8e836040518263ffffffff1660e01b81526004016200091f9190620016bc565b60c06040518083038186803b1580156200093857600080fd5b505afa1580156200094d573d6000803e3d6000fd5b505050506040513d601f19601f82011682018060405250810190620009739190620010f5565b905080838381518110620009b0577f4e487b7100000000000000000000000000000000000000000000000000000000600052603260045260246000fd5b6020026020010181905250508080620009c990620018d8565b915050620008b7565b508092505050919050565b6000620009e962000cc2565b73ffffffffffffffffffffffffffffffffffffffff1662000a09620007c6565b73ffffffffffffffffffffffffffffffffffffffff161462000a62576040517f08c379a000000000000000000000000000000000000000000000000000000000815260040162000a59906200161c565b60405180910390fd5b600060656000878152602001908152602001600020600101541162000abe576040517f08c379a000000000000000000000000000000000000000000000000000000000815260040162000ab590620015b6565b60405180910390fd5b60016067600082825462000ad39190620017e6565b92505081905550606860009054906101000a900473ffffffffffffffffffffffffffffffffffffffff1673ffffffffffffffffffffffffffffffffffffffff1663040af1ba606754878787876040518663ffffffff1660e01b815260040162000b4195949392919062001716565b600060405180830381600087803b15801562000b5c57600080fd5b505af115801562000b71573d6000803e3d6000fd5b505050506066600086815260200190815260200160002060675490806001815401808255809150506001900390600052602060002001600090919091909150556067549050949350505050565b62000bc862000cc2565b73ffffffffffffffffffffffffffffffffffffffff1662000be8620007c6565b73ffffffffffffffffffffffffffffffffffffffff161462000c41576040517f08c379a000000000000000000000000000000000000000000000000000000000815260040162000c38906200161c565b60405180910390fd5b600073ffffffffffffffffffffffffffffffffffffffff168173ffffffffffffffffffffffffffffffffffffffff16141562000cb4576040517f08c379a000000000000000000000000000000000000000000000000000000000815260040162000cab90620015d8565b60405180910390fd5b62000cbf8162000cca565b50565b600033905090565b6000603360009054906101000a900473ffffffffffffffffffffffffffffffffffffffff16905081603360006101000a81548173ffffffffffffffffffffffffffffffffffffffff021916908373ffffffffffffffffffffffffffffffffffffffff1602179055508173ffffffffffffffffffffffffffffffffffffffff168173ffffffffffffffffffffffffffffffffffffffff167f8be0079c531659141344cd1fd0a4f28419497f9722a3daafe3b4186f6b6457e060405160405180910390a35050565b60008060019054906101000a900460ff161562000e0f5760018260ff1614801562000dc3575062000dc13062000ee9565b155b62000e05576040517f08c379a000000000000000000000000000000000000000000000000000000000815260040162000dfc90620015fa565b60405180910390fd5b6000905062000e86565b8160ff1660008054906101000a900460ff1660ff161062000e67576040517f08c379a000000000000000000000000000000000000000000000000000000000815260040162000e5e90620015fa565b60405180910390fd5b816000806101000a81548160ff021916908360ff160217905550600190505b919050565b600060019054906101000a900460ff1662000edd576040517f08c379a000000000000000000000000000000000000000000000000000000000815260040162000ed49062001660565b60405180910390fd5b62000ee762000f0c565b565b6000808273ffffffffffffffffffffffffffffffffffffffff163b119050919050565b600060019054906101000a900460ff1662000f5e576040517f08c379a000000000000000000000000000000000000000000000000000000000815260040162000f559062001660565b60405180910390fd5b62000f7262000f6c62000cc2565b62000cca565b565b6040518060c001604052806000815260200160008152602001600081526020016000815260200160008152602001600081525090565b60405180606001604052806000815260200160008152602001600081525090565b6109698062001b5883390190565b60008135905062000fea8162001b23565b92915050565b600060c082840312156200100357600080fd5b6200100f60c062001773565b905060006200102184828501620010b2565b60008301525060206200103784828501620010b2565b60208301525060406200104d84828501620010b2565b60408301525060606200106384828501620010b2565b60608301525060806200107984828501620010b2565b60808301525060a06200108f84828501620010b2565b60a08301525092915050565b600081359050620010ac8162001b3d565b92915050565b600081519050620010c38162001b3d565b92915050565b600060208284031215620010dc57600080fd5b6000620010ec8482850162000fd9565b91505092915050565b600060c082840312156200110857600080fd5b6000620011188482850162000ff0565b91505092915050565b6000602082840312156200113457600080fd5b600062001144848285016200109b565b91505092915050565b600080604083850312156200116157600080fd5b600062001171858286016200109b565b925050602062001184858286016200109b565b9150509250929050565b600080600060608486031215620011a457600080fd5b6000620011b4868287016200109b565b9350506020620011c7868287016200109b565b9250506040620011da868287016200109b565b9150509250925092565b60008060008060808587031215620011fb57600080fd5b60006200120b878288016200109b565b94505060206200121e878288016200109b565b935050604062001231878288016200109b565b925050606062001244878288016200109b565b91505092959194509250565b60006200125e8383620013e0565b60c08301905092915050565b620012758162001843565b82525050565b60006200128882620017ac565b620012948185620017c4565b9350620012a1836200179c565b8060005b83811015620012d8578151620012bc888262001250565b9750620012c983620017b7565b925050600181019050620012a5565b5085935050505092915050565b620012f0816200188e565b82525050565b600062001305601483620017d5565b9150620013128262001995565b602082019050919050565b60006200132c602683620017d5565b91506200133982620019be565b604082019050919050565b600062001353602e83620017d5565b9150620013608262001a0d565b604082019050919050565b60006200137a602083620017d5565b9150620013878262001a5c565b602082019050919050565b6000620013a1602583620017d5565b9150620013ae8262001a85565b604082019050919050565b6000620013c8602b83620017d5565b9150620013d58262001ad4565b604082019050919050565b60c082016000820151620013f8600085018262001536565b5060208201516200140d602085018262001536565b50604082015162001422604085018262001536565b50606082015162001437606085018262001536565b5060808201516200144c608085018262001536565b5060a08201516200146160a085018262001536565b50505050565b60c0820160008201516200147f600085018262001536565b50602082015162001494602085018262001536565b506040820151620014a9604085018262001536565b506060820151620014be606085018262001536565b506080820151620014d3608085018262001536565b5060a0820151620014e860a085018262001536565b50505050565b60608201600082015162001506600085018262001536565b5060208201516200151b602085018262001536565b50604082015162001530604085018262001536565b50505050565b620015418162001877565b82525050565b620015528162001877565b82525050565b60006020820190506200156f60008301846200126a565b92915050565b600060208201905081810360008301526200159181846200127b565b905092915050565b6000602082019050620015b06000830184620012e5565b92915050565b60006020820190508181036000830152620015d181620012f6565b9050919050565b60006020820190508181036000830152620015f3816200131d565b9050919050565b60006020820190508181036000830152620016158162001344565b9050919050565b6000602082019050818103600083015262001637816200136b565b9050919050565b60006020820190508181036000830152620016598162001392565b9050919050565b600060208201905081810360008301526200167b81620013b9565b9050919050565b600060c08201905062001699600083018462001467565b92915050565b6000606082019050620016b66000830184620014ee565b92915050565b6000602082019050620016d3600083018462001547565b92915050565b6000606082019050620016f0600083018662001547565b620016ff602083018562001547565b6200170e604083018462001547565b949350505050565b600060a0820190506200172d600083018862001547565b6200173c602083018762001547565b6200174b604083018662001547565b6200175a606083018562001547565b62001769608083018462001547565b9695505050505050565b60006200177f62001792565b90506200178d8282620018a2565b919050565b6000604051905090565b6000819050602082019050919050565b600081519050919050565b6000602082019050919050565b600082825260208201905092915050565b600082825260208201905092915050565b6000620017f38262001877565b9150620018008362001877565b9250827fffffffffffffffffffffffffffffffffffffffffffffffffffffffffffffffff0382111562001838576200183762001926565b5b828201905092915050565b6000620018508262001857565b9050919050565b600073ffffffffffffffffffffffffffffffffffffffff82169050919050565b6000819050919050565b600060ff82169050919050565b60006200189b8262001881565b9050919050565b620018ad8262001984565b810181811067ffffffffffffffff82111715620018cf57620018ce62001955565b5b80604052505050565b6000620018e58262001877565b91507fffffffffffffffffffffffffffffffffffffffffffffffffffffffffffffffff8214156200191b576200191a62001926565b5b600182019050919050565b7f4e487b7100000000000000000000000000000000000000000000000000000000600052601160045260246000fd5b7f4e487b7100000000000000000000000000000000000000000000000000000000600052604160045260246000fd5b6000601f19601f8301169050919050565b7f776f726c6420646f6573206e6f74206578697374000000000000000000000000600082015250565b7f4f776e61626c653a206e6577206f776e657220697320746865207a65726f206160008201527f6464726573730000000000000000000000000000000000000000000000000000602082015250565b7f496e697469616c697a61626c653a20636f6e747261637420697320616c72656160008201527f647920696e697469616c697a6564000000000000000000000000000000000000602082015250565b7f4f776e61626c653a2063616c6c6572206973206e6f7420746865206f776e6572600082015250565b7f576f726c6420616c72656164792063726561746564207769746820746861742060008201527f696e646578000000000000000000000000000000000000000000000000000000602082015250565b7f496e697469616c697a61626c653a20636f6e7472616374206973206e6f74206960008201527f6e697469616c697a696e67000000000000000000000000000000000000000000602082015250565b62001b2e8162001843565b811462001b3a57600080fd5b50565b62001b488162001877565b811462001b5457600080fd5b5056fe608060405234801561001057600080fd5b50610019610119565b6040518060600160405280600281526020016040518060400160405280600581526020017f796561726e00000000000000000000000000000000000000000000000000000081525081526020016040518060400160405280601a81526020017f68747470733a2f2f544f444f2d6164642d495046532d6c696e6b000000000000815250815250905060008190806001815401808255809150506001900390600052602060002090600302016000909190919091506000820151816000015560208201518160010190805190602001906100f392919061013a565b50604082015181600201908051906020019061011092919061013a565b5050505061023e565b60405180606001604052806000815260200160608152602001606081525090565b828054610146906101dd565b90600052602060002090601f01602090048101928261016857600085556101af565b82601f1061018157805160ff19168380011785556101af565b828001600101855582156101af579182015b828111156101ae578251825591602001919060010190610193565b5b5090506101bc91906101c0565b5090565b5b808211156101d95760008160009055506001016101c1565b5090565b600060028204905060018216806101f557607f821691505b602082108114156102095761020861020f565b5b50919050565b7f4e487b7100000000000000000000000000000000000000000000000000000000600052602260045260246000fd5b61071c8061024d6000396000f3fe608060405234801561001057600080fd5b506004361061004c5760003560e01c8063040af1ba1461005157806334efcb8e1461006d578063cf4530b91461009d578063e08c264e146100d2575b600080fd5b61006b600480360381019061006691906103fa565b610104565b005b610087600480360381019061008291906103d1565b610197565b6040516100949190610543565b60405180910390f35b6100b760048036038101906100b291906103d1565b610200565b6040516100c9969594939291906105a3565b60405180910390f35b6100ec60048036038101906100e791906103d1565b61023c565b6040516100fb9392919061055e565b60405180910390f35b61010c610386565b6040518060c00160405280878152602001868152602001858152602001848152602001838152602001600081525090508060016000888152602001908152602001600020600082015181600001556020820151816001015560408201518160020155606082015181600301556080820151816004015560a08201518160050155905050505050505050565b61019f610386565b600160008381526020019081526020016000206040518060c001604052908160008201548152602001600182015481526020016002820154815260200160038201548152602001600482015481526020016005820154815250509050919050565b60016020528060005260406000206000915090508060000154908060010154908060020154908060030154908060040154908060050154905086565b6000818154811061024c57600080fd5b90600052602060002090600302016000915090508060000154908060010180546102759061065d565b80601f01602080910402602001604051908101604052809291908181526020018280546102a19061065d565b80156102ee5780601f106102c3576101008083540402835291602001916102ee565b820191906000526020600020905b8154815290600101906020018083116102d157829003601f168201915b5050505050908060020180546103039061065d565b80601f016020809104026020016040519081016040528092919081815260200182805461032f9061065d565b801561037c5780601f106103515761010080835404028352916020019161037c565b820191906000526020600020905b81548152906001019060200180831161035f57829003601f168201915b5050505050905083565b6040518060c001604052806000815260200160008152602001600081526020016000815260200160008152602001600081525090565b6000813590506103cb816106cf565b92915050565b6000602082840312156103e357600080fd5b60006103f1848285016103bc565b91505092915050565b600080600080600060a0868803121561041257600080fd5b6000610420888289016103bc565b9550506020610431888289016103bc565b9450506040610442888289016103bc565b9350506060610453888289016103bc565b9250506080610464888289016103bc565b9150509295509295909350565b600061047c82610604565b610486818561060f565b935061049681856020860161062a565b61049f816106be565b840191505092915050565b60c0820160008201516104c06000850182610525565b5060208201516104d36020850182610525565b5060408201516104e66040850182610525565b5060608201516104f96060850182610525565b50608082015161050c6080850182610525565b5060a082015161051f60a0850182610525565b50505050565b61052e81610620565b82525050565b61053d81610620565b82525050565b600060c08201905061055860008301846104aa565b92915050565b60006060820190506105736000830186610534565b81810360208301526105858185610471565b905081810360408301526105998184610471565b9050949350505050565b600060c0820190506105b86000830189610534565b6105c56020830188610534565b6105d26040830187610534565b6105df6060830186610534565b6105ec6080830185610534565b6105f960a0830184610534565b979650505050505050565b600081519050919050565b600082825260208201905092915050565b6000819050919050565b60005b8381101561064857808201518184015260208101905061062d565b83811115610657576000848401525b50505050565b6000600282049050600182168061067557607f821691505b602082108114156106895761068861068f565b5b50919050565b7f4e487b7100000000000000000000000000000000000000000000000000000000600052602260045260246000fd5b6000601f19601f8301169050919050565b6106d881610620565b81146106e357600080fd5b5056fea26469706673582212200a965370a0f5e674ed729f24c9039525b56c8596cbaf2ced0d2121aea011f61c64736f6c63430008040033a26469706673582212200c806119ae0815bf94aa3bb365c81fc3072e1e56936d0a0b637cd51797eaa52364736f6c63430008040033",
  "devdoc": {
    "kind": "dev",
    "methods": {
      "owner()": {
        "details": "Returns the address of the current owner."
      },
      "renounceOwnership()": {
        "details": "Leaves the contract without owner. It will not be possible to call `onlyOwner` functions anymore. Can only be called by the current owner. NOTE: Renouncing ownership will leave the contract without an owner, thereby removing any functionality that is only available to the owner."
      },
      "transferOwnership(address)": {
        "details": "Transfers ownership of the contract to a new account (`newOwner`). Can only be called by the current owner."
      }
    },
    "version": 1
  },
  "userdoc": {
    "kind": "user",
    "methods": {
      "getPlanet(uint256)": {
        "notice": "gets a planet"
      }
    },
    "version": 1
  },
  "storageLayout": {
    "storage": [
      {
        "astId": 130,
        "contract": "contracts/WorldMap.sol:WorldMapCreator",
        "label": "_initialized",
        "offset": 0,
        "slot": "0",
        "type": "t_uint8"
      },
      {
        "astId": 133,
        "contract": "contracts/WorldMap.sol:WorldMapCreator",
        "label": "_initializing",
        "offset": 1,
        "slot": "0",
        "type": "t_bool"
      },
      {
        "astId": 1808,
        "contract": "contracts/WorldMap.sol:WorldMapCreator",
        "label": "__gap",
        "offset": 0,
        "slot": "1",
        "type": "t_array(t_uint256)50_storage"
      },
      {
        "astId": 10,
        "contract": "contracts/WorldMap.sol:WorldMapCreator",
        "label": "_owner",
        "offset": 0,
        "slot": "51",
        "type": "t_address"
      },
      {
        "astId": 122,
        "contract": "contracts/WorldMap.sol:WorldMapCreator",
        "label": "__gap",
        "offset": 0,
        "slot": "52",
        "type": "t_array(t_uint256)49_storage"
      },
      {
        "astId": 4516,
        "contract": "contracts/WorldMap.sol:WorldMapCreator",
        "label": "existingWorlds",
        "offset": 0,
        "slot": "101",
        "type": "t_mapping(t_uint256,t_struct(WorldMap)4511_storage)"
      },
      {
        "astId": 4521,
        "contract": "contracts/WorldMap.sol:WorldMapCreator",
        "label": "planetsInWorld",
        "offset": 0,
        "slot": "102",
        "type": "t_mapping(t_uint256,t_array(t_uint256)dyn_storage)"
      },
      {
        "astId": 4523,
        "contract": "contracts/WorldMap.sol:WorldMapCreator",
        "label": "planetIndex",
        "offset": 0,
        "slot": "103",
        "type": "t_uint256"
      },
      {
        "astId": 4526,
        "contract": "contracts/WorldMap.sol:WorldMapCreator",
        "label": "_planetFactory",
        "offset": 0,
        "slot": "104",
        "type": "t_contract(PlanetFactory)3786"
      }
    ],
    "types": {
      "t_address": {
        "encoding": "inplace",
        "label": "address",
        "numberOfBytes": "20"
      },
      "t_array(t_uint256)49_storage": {
        "base": "t_uint256",
        "encoding": "inplace",
        "label": "uint256[49]",
        "numberOfBytes": "1568"
      },
      "t_array(t_uint256)50_storage": {
        "base": "t_uint256",
        "encoding": "inplace",
        "label": "uint256[50]",
        "numberOfBytes": "1600"
      },
      "t_array(t_uint256)dyn_storage": {
        "base": "t_uint256",
        "encoding": "dynamic_array",
        "label": "uint256[]",
        "numberOfBytes": "32"
      },
      "t_bool": {
        "encoding": "inplace",
        "label": "bool",
        "numberOfBytes": "1"
      },
      "t_contract(PlanetFactory)3786": {
        "encoding": "inplace",
        "label": "contract PlanetFactory",
        "numberOfBytes": "20"
      },
      "t_mapping(t_uint256,t_array(t_uint256)dyn_storage)": {
        "encoding": "mapping",
        "key": "t_uint256",
        "label": "mapping(uint256 => uint256[])",
        "numberOfBytes": "32",
        "value": "t_array(t_uint256)dyn_storage"
      },
      "t_mapping(t_uint256,t_struct(WorldMap)4511_storage)": {
        "encoding": "mapping",
        "key": "t_uint256",
        "label": "mapping(uint256 => struct WorldMapCreator.WorldMap)",
        "numberOfBytes": "32",
        "value": "t_struct(WorldMap)4511_storage"
      },
      "t_struct(WorldMap)4511_storage": {
        "encoding": "inplace",
        "label": "struct WorldMapCreator.WorldMap",
        "members": [
          {
            "astId": 4506,
            "contract": "contracts/WorldMap.sol:WorldMapCreator",
            "label": "worldIndex",
            "offset": 0,
            "slot": "0",
            "type": "t_uint256"
          },
          {
            "astId": 4508,
            "contract": "contracts/WorldMap.sol:WorldMapCreator",
            "label": "Length",
            "offset": 0,
            "slot": "1",
            "type": "t_uint256"
          },
          {
            "astId": 4510,
            "contract": "contracts/WorldMap.sol:WorldMapCreator",
            "label": "Breadth",
            "offset": 0,
            "slot": "2",
            "type": "t_uint256"
          }
        ],
        "numberOfBytes": "96"
      },
      "t_uint256": {
        "encoding": "inplace",
        "label": "uint256",
        "numberOfBytes": "32"
      },
      "t_uint8": {
        "encoding": "inplace",
        "label": "uint8",
        "numberOfBytes": "1"
      }
    }
  }
}